{
  "_format": "hh-sol-artifact-1",
  "contractName": "SVGNFT",
  "sourceName": "contracts/SVGNFT.sol",
  "abi": [
    {
      "inputs": [],
      "stateMutability": "nonpayable",
      "type": "constructor"
    },
    {
      "anonymous": false,
      "inputs": [
        {
          "indexed": true,
          "internalType": "address",
          "name": "owner",
          "type": "address"
        },
        {
          "indexed": true,
          "internalType": "address",
          "name": "approved",
          "type": "address"
        },
        {
          "indexed": true,
          "internalType": "uint256",
          "name": "tokenId",
          "type": "uint256"
        }
      ],
      "name": "Approval",
      "type": "event"
    },
    {
      "anonymous": false,
      "inputs": [
        {
          "indexed": true,
          "internalType": "address",
          "name": "owner",
          "type": "address"
        },
        {
          "indexed": true,
          "internalType": "address",
          "name": "operator",
          "type": "address"
        },
        {
          "indexed": false,
          "internalType": "bool",
          "name": "approved",
          "type": "bool"
        }
      ],
      "name": "ApprovalForAll",
      "type": "event"
    },
    {
      "anonymous": false,
      "inputs": [
        {
          "indexed": true,
          "internalType": "uint256",
          "name": "tokenId",
          "type": "uint256"
        },
        {
          "indexed": false,
          "internalType": "string",
          "name": "tokenURI",
          "type": "string"
        }
      ],
      "name": "CreatedSVGNFT",
      "type": "event"
    },
    {
      "anonymous": false,
      "inputs": [
        {
          "indexed": true,
          "internalType": "address",
          "name": "from",
          "type": "address"
        },
        {
          "indexed": true,
          "internalType": "address",
          "name": "to",
          "type": "address"
        },
        {
          "indexed": true,
          "internalType": "uint256",
          "name": "tokenId",
          "type": "uint256"
        }
      ],
      "name": "Transfer",
      "type": "event"
    },
    {
      "inputs": [
        {
          "internalType": "address",
          "name": "to",
          "type": "address"
        },
        {
          "internalType": "uint256",
          "name": "tokenId",
          "type": "uint256"
        }
      ],
      "name": "approve",
      "outputs": [],
      "stateMutability": "nonpayable",
      "type": "function"
    },
    {
      "inputs": [
        {
          "internalType": "address",
          "name": "owner",
          "type": "address"
        }
      ],
      "name": "balanceOf",
      "outputs": [
        {
          "internalType": "uint256",
          "name": "",
          "type": "uint256"
        }
      ],
      "stateMutability": "view",
      "type": "function"
    },
    {
      "inputs": [
        {
          "internalType": "string",
          "name": "_svg",
          "type": "string"
        }
      ],
      "name": "create",
      "outputs": [],
      "stateMutability": "nonpayable",
      "type": "function"
    },
    {
      "inputs": [
        {
          "internalType": "string",
          "name": "_imageURI",
          "type": "string"
        }
      ],
      "name": "formatTokenURI",
      "outputs": [
        {
          "internalType": "string",
          "name": "",
          "type": "string"
        }
      ],
      "stateMutability": "pure",
      "type": "function"
    },
    {
      "inputs": [
        {
          "internalType": "uint256",
          "name": "tokenId",
          "type": "uint256"
        }
      ],
      "name": "getApproved",
      "outputs": [
        {
          "internalType": "address",
          "name": "",
          "type": "address"
        }
      ],
      "stateMutability": "view",
      "type": "function"
    },
    {
      "inputs": [
        {
          "internalType": "address",
          "name": "owner",
          "type": "address"
        },
        {
          "internalType": "address",
          "name": "operator",
          "type": "address"
        }
      ],
      "name": "isApprovedForAll",
      "outputs": [
        {
          "internalType": "bool",
          "name": "",
          "type": "bool"
        }
      ],
      "stateMutability": "view",
      "type": "function"
    },
    {
      "inputs": [],
      "name": "name",
      "outputs": [
        {
          "internalType": "string",
          "name": "",
          "type": "string"
        }
      ],
      "stateMutability": "view",
      "type": "function"
    },
    {
      "inputs": [
        {
          "internalType": "uint256",
          "name": "tokenId",
          "type": "uint256"
        }
      ],
      "name": "ownerOf",
      "outputs": [
        {
          "internalType": "address",
          "name": "",
          "type": "address"
        }
      ],
      "stateMutability": "view",
      "type": "function"
    },
    {
      "inputs": [
        {
          "internalType": "address",
          "name": "from",
          "type": "address"
        },
        {
          "internalType": "address",
          "name": "to",
          "type": "address"
        },
        {
          "internalType": "uint256",
          "name": "tokenId",
          "type": "uint256"
        }
      ],
      "name": "safeTransferFrom",
      "outputs": [],
      "stateMutability": "nonpayable",
      "type": "function"
    },
    {
      "inputs": [
        {
          "internalType": "address",
          "name": "from",
          "type": "address"
        },
        {
          "internalType": "address",
          "name": "to",
          "type": "address"
        },
        {
          "internalType": "uint256",
          "name": "tokenId",
          "type": "uint256"
        },
        {
          "internalType": "bytes",
          "name": "_data",
          "type": "bytes"
        }
      ],
      "name": "safeTransferFrom",
      "outputs": [],
      "stateMutability": "nonpayable",
      "type": "function"
    },
    {
      "inputs": [
        {
          "internalType": "address",
          "name": "operator",
          "type": "address"
        },
        {
          "internalType": "bool",
          "name": "approved",
          "type": "bool"
        }
      ],
      "name": "setApprovalForAll",
      "outputs": [],
      "stateMutability": "nonpayable",
      "type": "function"
    },
    {
      "inputs": [
        {
          "internalType": "bytes4",
          "name": "interfaceId",
          "type": "bytes4"
        }
      ],
      "name": "supportsInterface",
      "outputs": [
        {
          "internalType": "bool",
          "name": "",
          "type": "bool"
        }
      ],
      "stateMutability": "view",
      "type": "function"
    },
    {
      "inputs": [
        {
          "internalType": "string",
          "name": "_svg",
          "type": "string"
        }
      ],
      "name": "svgToImageURI",
      "outputs": [
        {
          "internalType": "string",
          "name": "",
          "type": "string"
        }
      ],
      "stateMutability": "pure",
      "type": "function"
    },
    {
      "inputs": [],
      "name": "symbol",
      "outputs": [
        {
          "internalType": "string",
          "name": "",
          "type": "string"
        }
      ],
      "stateMutability": "view",
      "type": "function"
    },
    {
      "inputs": [],
      "name": "tokenCounter",
      "outputs": [
        {
          "internalType": "uint256",
          "name": "",
          "type": "uint256"
        }
      ],
      "stateMutability": "view",
      "type": "function"
    },
    {
      "inputs": [
        {
          "internalType": "uint256",
          "name": "tokenId",
          "type": "uint256"
        }
      ],
      "name": "tokenURI",
      "outputs": [
        {
          "internalType": "string",
          "name": "",
          "type": "string"
        }
      ],
      "stateMutability": "view",
      "type": "function"
    },
    {
      "inputs": [
        {
          "internalType": "address",
          "name": "from",
          "type": "address"
        },
        {
          "internalType": "address",
          "name": "to",
          "type": "address"
        },
        {
          "internalType": "uint256",
          "name": "tokenId",
          "type": "uint256"
        }
      ],
      "name": "transferFrom",
      "outputs": [],
      "stateMutability": "nonpayable",
      "type": "function"
    }
  ],
  "bytecode": "0x60806040523480156200001157600080fd5b506040518060400160405280600781526020017f535647204e4654000000000000000000000000000000000000000000000000008152506040518060400160405280600681526020017f7376674e46540000000000000000000000000000000000000000000000000000815250816000908051906020019062000096929190620000c0565b508060019080519060200190620000af929190620000c0565b5050506000600781905550620001d5565b828054620000ce9062000170565b90600052602060002090601f016020900481019282620000f257600085556200013e565b82601f106200010d57805160ff19168380011785556200013e565b828001600101855582156200013e579182015b828111156200013d57825182559160200191906001019062000120565b5b5090506200014d919062000151565b5090565b5b808211156200016c57600081600090555060010162000152565b5090565b600060028204905060018216806200018957607f821691505b60208210811415620001a0576200019f620001a6565b5b50919050565b7f4e487b7100000000000000000000000000000000000000000000000000000000600052602260045260246000fd5b6130d080620001e56000396000f3fe608060405234801561001057600080fd5b506004361061010b5760003560e01c806370a08231116100a2578063b6a46b3b11610071578063b6a46b3b146102dc578063b88d4fde146102f8578063c87b56dd14610314578063d082e38114610344578063e985e9c5146103625761010b565b806370a082311461024257806371aee1931461027257806395d89b41146102a2578063a22cb465146102c05761010b565b806323b872dd116100de57806323b872dd146101aa57806330d871c6146101c657806342842e0e146101f65780636352211e146102125761010b565b806301ffc9a71461011057806306fdde0314610140578063081812fc1461015e578063095ea7b31461018e575b600080fd5b61012a60048036038101906101259190611f81565b610392565b604051610137919061298e565b60405180910390f35b610148610474565b60405161015591906129a9565b60405180910390f35b61017860048036038101906101739190612014565b610506565b6040516101859190612927565b60405180910390f35b6101a860048036038101906101a39190611f45565b61058b565b005b6101c460048036038101906101bf9190611e3f565b6106a3565b005b6101e060048036038101906101db9190611fd3565b610703565b6040516101ed91906129a9565b60405180910390f35b610210600480360381019061020b9190611e3f565b61079c565b005b61022c60048036038101906102279190612014565b6107bc565b6040516102399190612927565b60405180910390f35b61025c60048036038101906102579190611dda565b61086e565b6040516102699190612bcb565b60405180910390f35b61028c60048036038101906102879190611fd3565b610926565b60405161029991906129a9565b60405180910390f35b6102aa610976565b6040516102b791906129a9565b60405180910390f35b6102da60048036038101906102d59190611f09565b610a08565b005b6102f660048036038101906102f19190611fd3565b610b89565b005b610312600480360381019061030d9190611e8e565b610c0f565b005b61032e60048036038101906103299190612014565b610c71565b60405161033b91906129a9565b60405180910390f35b61034c610dc3565b6040516103599190612bcb565b60405180910390f35b61037c60048036038101906103779190611e03565b610dc9565b604051610389919061298e565b60405180910390f35b60007f80ac58cd000000000000000000000000000000000000000000000000000000007bffffffffffffffffffffffffffffffffffffffffffffffffffffffff1916827bffffffffffffffffffffffffffffffffffffffffffffffffffffffff1916148061045d57507f5b5e139f000000000000000000000000000000000000000000000000000000007bffffffffffffffffffffffffffffffffffffffffffffffffffffffff1916827bffffffffffffffffffffffffffffffffffffffffffffffffffffffff1916145b8061046d575061046c82610e5d565b5b9050919050565b60606000805461048390612e85565b80601f01602080910402602001604051908101604052809291908181526020018280546104af90612e85565b80156104fc5780601f106104d1576101008083540402835291602001916104fc565b820191906000526020600020905b8154815290600101906020018083116104df57829003601f168201915b5050505050905090565b600061051182610ec7565b610550576040517f08c379a000000000000000000000000000000000000000000000000000000000815260040161054790612b2b565b60405180910390fd5b6004600083815260200190815260200160002060009054906101000a900473ffffffffffffffffffffffffffffffffffffffff169050919050565b6000610596826107bc565b90508073ffffffffffffffffffffffffffffffffffffffff168373ffffffffffffffffffffffffffffffffffffffff161415610607576040517f08c379a00000000000000000000000000000000000000000000000000000000081526004016105fe90612b8b565b60405180910390fd5b8073ffffffffffffffffffffffffffffffffffffffff16610626610f33565b73ffffffffffffffffffffffffffffffffffffffff16148061065557506106548161064f610f33565b610dc9565b5b610694576040517f08c379a000000000000000000000000000000000000000000000000000000000815260040161068b90612a6b565b60405180910390fd5b61069e8383610f3b565b505050565b6106b46106ae610f33565b82610ff4565b6106f3576040517f08c379a00000000000000000000000000000000000000000000000000000000081526004016106ea90612bab565b60405180910390fd5b6106fe8383836110d2565b505050565b606060006040518060400160405280601a81526020017f646174613a696d6167652f7376672b786d6c3b6261736536342c00000000000081525090506000610769846040516020016107559190612887565b60405160208183030381529060405261132e565b90506000828260405160200161078092919061289e565b6040516020818303038152906040529050809350505050919050565b6107b783838360405180602001604052806000815250610c0f565b505050565b6000806002600084815260200190815260200160002060009054906101000a900473ffffffffffffffffffffffffffffffffffffffff169050600073ffffffffffffffffffffffffffffffffffffffff168173ffffffffffffffffffffffffffffffffffffffff161415610865576040517f08c379a000000000000000000000000000000000000000000000000000000000815260040161085c90612aab565b60405180910390fd5b80915050919050565b60008073ffffffffffffffffffffffffffffffffffffffff168273ffffffffffffffffffffffffffffffffffffffff1614156108df576040517f08c379a00000000000000000000000000000000000000000000000000000000081526004016108d690612a8b565b60405180910390fd5b600360008373ffffffffffffffffffffffffffffffffffffffff1673ffffffffffffffffffffffffffffffffffffffff168152602001908152602001600020549050919050565b60606109508260405160200161093c91906128c2565b60405160208183030381529060405261132e565b6040516020016109609190612905565b6040516020818303038152906040529050919050565b60606001805461098590612e85565b80601f01602080910402602001604051908101604052809291908181526020018280546109b190612e85565b80156109fe5780601f106109d3576101008083540402835291602001916109fe565b820191906000526020600020905b8154815290600101906020018083116109e157829003601f168201915b5050505050905090565b610a10610f33565b73ffffffffffffffffffffffffffffffffffffffff168273ffffffffffffffffffffffffffffffffffffffff161415610a7e576040517f08c379a0000000000000000000000000000000000000000000000000000000008152600401610a7590612a2b565b60405180910390fd5b8060056000610a8b610f33565b73ffffffffffffffffffffffffffffffffffffffff1673ffffffffffffffffffffffffffffffffffffffff16815260200190815260200160002060008473ffffffffffffffffffffffffffffffffffffffff1673ffffffffffffffffffffffffffffffffffffffff16815260200190815260200160002060006101000a81548160ff0219169083151502179055508173ffffffffffffffffffffffffffffffffffffffff16610b38610f33565b73ffffffffffffffffffffffffffffffffffffffff167f17307eab39ab6107e8899845ad3d59bd9653f200f220920489ca2b5937696c3183604051610b7d919061298e565b60405180910390a35050565b610b95336007546114cd565b6000610ba082610703565b90506000610bad82610926565b9050610bbb600754826114eb565b6001600754610bca9190612cba565b6007819055506007547ff5acc616aa8ecd00e5d76674d7812f9c3c3571d662c9fba4499deefa6d0be12d82604051610c0291906129a9565b60405180910390a2505050565b610c20610c1a610f33565b83610ff4565b610c5f576040517f08c379a0000000000000000000000000000000000000000000000000000000008152600401610c5690612bab565b60405180910390fd5b610c6b8484848461155f565b50505050565b6060610c7c82610ec7565b610cbb576040517f08c379a0000000000000000000000000000000000000000000000000000000008152600401610cb290612b0b565b60405180910390fd5b6000600660008481526020019081526020016000208054610cdb90612e85565b80601f0160208091040260200160405190810160405280929190818152602001828054610d0790612e85565b8015610d545780601f10610d2957610100808354040283529160200191610d54565b820191906000526020600020905b815481529060010190602001808311610d3757829003601f168201915b505050505090506000610d656115bb565b9050600081511415610d7b578192505050610dbe565b600082511115610db0578082604051602001610d9892919061289e565b60405160208183030381529060405292505050610dbe565b610db9846115d2565b925050505b919050565b60075481565b6000600560008473ffffffffffffffffffffffffffffffffffffffff1673ffffffffffffffffffffffffffffffffffffffff16815260200190815260200160002060008373ffffffffffffffffffffffffffffffffffffffff1673ffffffffffffffffffffffffffffffffffffffff16815260200190815260200160002060009054906101000a900460ff16905092915050565b60007f01ffc9a7000000000000000000000000000000000000000000000000000000007bffffffffffffffffffffffffffffffffffffffffffffffffffffffff1916827bffffffffffffffffffffffffffffffffffffffffffffffffffffffff1916149050919050565b60008073ffffffffffffffffffffffffffffffffffffffff166002600084815260200190815260200160002060009054906101000a900473ffffffffffffffffffffffffffffffffffffffff1673ffffffffffffffffffffffffffffffffffffffff1614159050919050565b600033905090565b816004600083815260200190815260200160002060006101000a81548173ffffffffffffffffffffffffffffffffffffffff021916908373ffffffffffffffffffffffffffffffffffffffff160217905550808273ffffffffffffffffffffffffffffffffffffffff16610fae836107bc565b73ffffffffffffffffffffffffffffffffffffffff167f8c5be1e5ebec7d5bd14f71427d1e84f3dd0314c0f7b2291e5b200ac8c7c3b92560405160405180910390a45050565b6000610fff82610ec7565b61103e576040517f08c379a000000000000000000000000000000000000000000000000000000000815260040161103590612a4b565b60405180910390fd5b6000611049836107bc565b90508073ffffffffffffffffffffffffffffffffffffffff168473ffffffffffffffffffffffffffffffffffffffff1614806110b857508373ffffffffffffffffffffffffffffffffffffffff166110a084610506565b73ffffffffffffffffffffffffffffffffffffffff16145b806110c957506110c88185610dc9565b5b91505092915050565b8273ffffffffffffffffffffffffffffffffffffffff166110f2826107bc565b73ffffffffffffffffffffffffffffffffffffffff1614611148576040517f08c379a000000000000000000000000000000000000000000000000000000000815260040161113f90612b4b565b60405180910390fd5b600073ffffffffffffffffffffffffffffffffffffffff168273ffffffffffffffffffffffffffffffffffffffff1614156111b8576040517f08c379a00000000000000000000000000000000000000000000000000000000081526004016111af90612a0b565b60405180910390fd5b6111c3838383611679565b6111ce600082610f3b565b6001600360008573ffffffffffffffffffffffffffffffffffffffff1673ffffffffffffffffffffffffffffffffffffffff168152602001908152602001600020600082825461121e9190612d9b565b925050819055506001600360008473ffffffffffffffffffffffffffffffffffffffff1673ffffffffffffffffffffffffffffffffffffffff16815260200190815260200160002060008282546112759190612cba565b92505081905550816002600083815260200190815260200160002060006101000a81548173ffffffffffffffffffffffffffffffffffffffff021916908373ffffffffffffffffffffffffffffffffffffffff160217905550808273ffffffffffffffffffffffffffffffffffffffff168473ffffffffffffffffffffffffffffffffffffffff167fddf252ad1be2c89b69c2b068fc378daa952ba7f163c4a11628f55a4df523b3ef60405160405180910390a4505050565b6060600082511415611351576040518060200160405280600081525090506114c8565b600060405180606001604052806040815260200161305b60409139905060006003600285516113809190612cba565b61138a9190612d10565b60046113969190612d41565b905060006020826113a79190612cba565b67ffffffffffffffff8111156113e6577f4e487b7100000000000000000000000000000000000000000000000000000000600052604160045260246000fd5b6040519080825280601f01601f1916602001820160405280156114185781602001600182028036833780820191505090505b509050818152600183018586518101602084015b81831015611487576003830192508251603f8160121c168501518253600182019150603f81600c1c168501518253600182019150603f8160061c168501518253600182019150603f811685015182536001820191505061142c565b6003895106600181146114a157600281146114b1576114bc565b613d3d60f01b60028303526114bc565b603d60f81b60018303525b50505050508093505050505b919050565b6114e782826040518060200160405280600081525061167e565b5050565b6114f482610ec7565b611533576040517f08c379a000000000000000000000000000000000000000000000000000000000815260040161152a90612acb565b60405180910390fd5b8060066000848152602001908152602001600020908051906020019061155a929190611bfe565b505050565b61156a8484846110d2565b611576848484846116d9565b6115b5576040517f08c379a00000000000000000000000000000000000000000000000000000000081526004016115ac906129cb565b60405180910390fd5b50505050565b606060405180602001604052806000815250905090565b60606115dd82610ec7565b61161c576040517f08c379a000000000000000000000000000000000000000000000000000000000815260040161161390612b6b565b60405180910390fd5b60006116266115bb565b905060008151116116465760405180602001604052806000815250611671565b8061165084611870565b60405160200161166192919061289e565b6040516020818303038152906040525b915050919050565b505050565b6116888383611a1d565b61169560008484846116d9565b6116d4576040517f08c379a00000000000000000000000000000000000000000000000000000000081526004016116cb906129cb565b60405180910390fd5b505050565b60006116fa8473ffffffffffffffffffffffffffffffffffffffff16611beb565b15611863578373ffffffffffffffffffffffffffffffffffffffff1663150b7a02611723610f33565b8786866040518563ffffffff1660e01b81526004016117459493929190612942565b602060405180830381600087803b15801561175f57600080fd5b505af192505050801561179057506040513d601f19601f8201168201806040525081019061178d9190611faa565b60015b611813573d80600081146117c0576040519150601f19603f3d011682016040523d82523d6000602084013e6117c5565b606091505b5060008151141561180b576040517f08c379a0000000000000000000000000000000000000000000000000000000008152600401611802906129cb565b60405180910390fd5b805181602001fd5b63150b7a0260e01b7bffffffffffffffffffffffffffffffffffffffffffffffffffffffff1916817bffffffffffffffffffffffffffffffffffffffffffffffffffffffff191614915050611868565b600190505b949350505050565b606060008214156118b8576040518060400160405280600181526020017f30000000000000000000000000000000000000000000000000000000000000008152509050611a18565b600082905060005b600082146118ea5780806118d390612eb7565b915050600a826118e39190612d10565b91506118c0565b60008167ffffffffffffffff81111561192c577f4e487b7100000000000000000000000000000000000000000000000000000000600052604160045260246000fd5b6040519080825280601f01601f19166020018201604052801561195e5781602001600182028036833780820191505090505b5090505b60008514611a11576001826119779190612d9b565b9150600a856119869190612f00565b60306119929190612cba565b60f81b8183815181106119ce577f4e487b7100000000000000000000000000000000000000000000000000000000600052603260045260246000fd5b60200101907effffffffffffffffffffffffffffffffffffffffffffffffffffffffffffff1916908160001a905350600a85611a0a9190612d10565b9450611962565b8093505050505b919050565b600073ffffffffffffffffffffffffffffffffffffffff168273ffffffffffffffffffffffffffffffffffffffff161415611a8d576040517f08c379a0000000000000000000000000000000000000000000000000000000008152600401611a8490612aeb565b60405180910390fd5b611a9681610ec7565b15611ad6576040517f08c379a0000000000000000000000000000000000000000000000000000000008152600401611acd906129eb565b60405180910390fd5b611ae260008383611679565b6001600360008473ffffffffffffffffffffffffffffffffffffffff1673ffffffffffffffffffffffffffffffffffffffff1681526020019081526020016000206000828254611b329190612cba565b92505081905550816002600083815260200190815260200160002060006101000a81548173ffffffffffffffffffffffffffffffffffffffff021916908373ffffffffffffffffffffffffffffffffffffffff160217905550808273ffffffffffffffffffffffffffffffffffffffff16600073ffffffffffffffffffffffffffffffffffffffff167fddf252ad1be2c89b69c2b068fc378daa952ba7f163c4a11628f55a4df523b3ef60405160405180910390a45050565b600080823b905060008111915050919050565b828054611c0a90612e85565b90600052602060002090601f016020900481019282611c2c5760008555611c73565b82601f10611c4557805160ff1916838001178555611c73565b82800160010185558215611c73579182015b82811115611c72578251825591602001919060010190611c57565b5b509050611c809190611c84565b5090565b5b80821115611c9d576000816000905550600101611c85565b5090565b6000611cb4611caf84612c17565b612be6565b905082815260208101848484011115611ccc57600080fd5b611cd7848285612e43565b509392505050565b6000611cf2611ced84612c47565b612be6565b905082815260208101848484011115611d0a57600080fd5b611d15848285612e43565b509392505050565b600081359050611d2c81612ffe565b92915050565b600081359050611d4181613015565b92915050565b600081359050611d568161302c565b92915050565b600081519050611d6b8161302c565b92915050565b600082601f830112611d8257600080fd5b8135611d92848260208601611ca1565b91505092915050565b600082601f830112611dac57600080fd5b8135611dbc848260208601611cdf565b91505092915050565b600081359050611dd481613043565b92915050565b600060208284031215611dec57600080fd5b6000611dfa84828501611d1d565b91505092915050565b60008060408385031215611e1657600080fd5b6000611e2485828601611d1d565b9250506020611e3585828601611d1d565b9150509250929050565b600080600060608486031215611e5457600080fd5b6000611e6286828701611d1d565b9350506020611e7386828701611d1d565b9250506040611e8486828701611dc5565b9150509250925092565b60008060008060808587031215611ea457600080fd5b6000611eb287828801611d1d565b9450506020611ec387828801611d1d565b9350506040611ed487828801611dc5565b925050606085013567ffffffffffffffff811115611ef157600080fd5b611efd87828801611d71565b91505092959194509250565b60008060408385031215611f1c57600080fd5b6000611f2a85828601611d1d565b9250506020611f3b85828601611d32565b9150509250929050565b60008060408385031215611f5857600080fd5b6000611f6685828601611d1d565b9250506020611f7785828601611dc5565b9150509250929050565b600060208284031215611f9357600080fd5b6000611fa184828501611d47565b91505092915050565b600060208284031215611fbc57600080fd5b6000611fca84828501611d5c565b91505092915050565b600060208284031215611fe557600080fd5b600082013567ffffffffffffffff811115611fff57600080fd5b61200b84828501611d9b565b91505092915050565b60006020828403121561202657600080fd5b600061203484828501611dc5565b91505092915050565b61204681612dcf565b82525050565b61205581612de1565b82525050565b600061206682612c77565b6120708185612c8d565b9350612080818560208601612e52565b61208981612fed565b840191505092915050565b600061209f82612c82565b6120a98185612c9e565b93506120b9818560208601612e52565b6120c281612fed565b840191505092915050565b60006120d882612c82565b6120e28185612caf565b93506120f2818560208601612e52565b80840191505092915050565b600061210b600983612caf565b91507f7b226e616d65223a2200000000000000000000000000000000000000000000006000830152600982019050919050565b600061214b603283612c9e565b91507f4552433732313a207472616e7366657220746f206e6f6e20455243373231526560008301527f63656976657220696d706c656d656e74657200000000000000000000000000006020830152604082019050919050565b60006121b1601c83612c9e565b91507f4552433732313a20746f6b656e20616c7265616479206d696e746564000000006000830152602082019050919050565b60006121f1602483612c9e565b91507f4552433732313a207472616e7366657220746f20746865207a65726f2061646460008301527f72657373000000000000000000000000000000000000000000000000000000006020830152604082019050919050565b6000612257601983612c9e565b91507f4552433732313a20617070726f766520746f2063616c6c6572000000000000006000830152602082019050919050565b6000612297602c83612c9e565b91507f4552433732313a206f70657261746f7220717565727920666f72206e6f6e657860008301527f697374656e7420746f6b656e00000000000000000000000000000000000000006020830152604082019050919050565b60006122fd600783612caf565b91507f535647204e4654000000000000000000000000000000000000000000000000006000830152600782019050919050565b600061233d603883612c9e565b91507f4552433732313a20617070726f76652063616c6c6572206973206e6f74206f7760008301527f6e6572206e6f7220617070726f76656420666f7220616c6c00000000000000006020830152604082019050919050565b60006123a3602a83612c9e565b91507f4552433732313a2062616c616e636520717565727920666f7220746865207a6560008301527f726f2061646472657373000000000000000000000000000000000000000000006020830152604082019050919050565b6000612409602983612c9e565b91507f4552433732313a206f776e657220717565727920666f72206e6f6e657869737460008301527f656e7420746f6b656e00000000000000000000000000000000000000000000006020830152604082019050919050565b600061246f602e83612c9e565b91507f45524337323155524953746f726167653a2055524920736574206f66206e6f6e60008301527f6578697374656e7420746f6b656e0000000000000000000000000000000000006020830152604082019050919050565b60006124d5600283612caf565b91507f227d0000000000000000000000000000000000000000000000000000000000006000830152600282019050919050565b6000612515602083612c9e565b91507f4552433732313a206d696e7420746f20746865207a65726f20616464726573736000830152602082019050919050565b6000612555603183612c9e565b91507f45524337323155524953746f726167653a2055524920717565727920666f722060008301527f6e6f6e6578697374656e7420746f6b656e0000000000000000000000000000006020830152604082019050919050565b60006125bb602c83612c9e565b91507f4552433732313a20617070726f76656420717565727920666f72206e6f6e657860008301527f697374656e7420746f6b656e00000000000000000000000000000000000000006020830152604082019050919050565b6000612621602983612c9e565b91507f4552433732313a207472616e73666572206f6620746f6b656e2074686174206960008301527f73206e6f74206f776e00000000000000000000000000000000000000000000006020830152604082019050919050565b6000612687602f83612c9e565b91507f4552433732314d657461646174613a2055524920717565727920666f72206e6f60008301527f6e6578697374656e7420746f6b656e00000000000000000000000000000000006020830152604082019050919050565b60006126ed604383612caf565b91507f222c20226465736372697074696f6e223a22416e204e4654206261736564206f60008301527f6e2053564721222c202261747472696275746573223a22222c2022696d61676560208301527f223a2200000000000000000000000000000000000000000000000000000000006040830152604382019050919050565b6000612779602183612c9e565b91507f4552433732313a20617070726f76616c20746f2063757272656e74206f776e6560008301527f72000000000000000000000000000000000000000000000000000000000000006020830152604082019050919050565b60006127df601d83612caf565b91507f646174613a6170706c69636174696f6e2f6a736f6e3b6261736536342c0000006000830152601d82019050919050565b600061281f603183612c9e565b91507f4552433732313a207472616e736665722063616c6c6572206973206e6f74206f60008301527f776e6572206e6f7220617070726f7665640000000000000000000000000000006020830152604082019050919050565b61288181612e39565b82525050565b600061289382846120cd565b915081905092915050565b60006128aa82856120cd565b91506128b682846120cd565b91508190509392505050565b60006128cd826120fe565b91506128d8826122f0565b91506128e3826126e0565b91506128ef82846120cd565b91506128fa826124c8565b915081905092915050565b6000612910826127d2565b915061291c82846120cd565b915081905092915050565b600060208201905061293c600083018461203d565b92915050565b6000608082019050612957600083018761203d565b612964602083018661203d565b6129716040830185612878565b8181036060830152612983818461205b565b905095945050505050565b60006020820190506129a3600083018461204c565b92915050565b600060208201905081810360008301526129c38184612094565b905092915050565b600060208201905081810360008301526129e48161213e565b9050919050565b60006020820190508181036000830152612a04816121a4565b9050919050565b60006020820190508181036000830152612a24816121e4565b9050919050565b60006020820190508181036000830152612a448161224a565b9050919050565b60006020820190508181036000830152612a648161228a565b9050919050565b60006020820190508181036000830152612a8481612330565b9050919050565b60006020820190508181036000830152612aa481612396565b9050919050565b60006020820190508181036000830152612ac4816123fc565b9050919050565b60006020820190508181036000830152612ae481612462565b9050919050565b60006020820190508181036000830152612b0481612508565b9050919050565b60006020820190508181036000830152612b2481612548565b9050919050565b60006020820190508181036000830152612b44816125ae565b9050919050565b60006020820190508181036000830152612b6481612614565b9050919050565b60006020820190508181036000830152612b848161267a565b9050919050565b60006020820190508181036000830152612ba48161276c565b9050919050565b60006020820190508181036000830152612bc481612812565b9050919050565b6000602082019050612be06000830184612878565b92915050565b6000604051905081810181811067ffffffffffffffff82111715612c0d57612c0c612fbe565b5b8060405250919050565b600067ffffffffffffffff821115612c3257612c31612fbe565b5b601f19601f8301169050602081019050919050565b600067ffffffffffffffff821115612c6257612c61612fbe565b5b601f19601f8301169050602081019050919050565b600081519050919050565b600081519050919050565b600082825260208201905092915050565b600082825260208201905092915050565b600081905092915050565b6000612cc582612e39565b9150612cd083612e39565b9250827fffffffffffffffffffffffffffffffffffffffffffffffffffffffffffffffff03821115612d0557612d04612f31565b5b828201905092915050565b6000612d1b82612e39565b9150612d2683612e39565b925082612d3657612d35612f60565b5b828204905092915050565b6000612d4c82612e39565b9150612d5783612e39565b9250817fffffffffffffffffffffffffffffffffffffffffffffffffffffffffffffffff0483118215151615612d9057612d8f612f31565b5b828202905092915050565b6000612da682612e39565b9150612db183612e39565b925082821015612dc457612dc3612f31565b5b828203905092915050565b6000612dda82612e19565b9050919050565b60008115159050919050565b60007fffffffff0000000000000000000000000000000000000000000000000000000082169050919050565b600073ffffffffffffffffffffffffffffffffffffffff82169050919050565b6000819050919050565b82818337600083830152505050565b60005b83811015612e70578082015181840152602081019050612e55565b83811115612e7f576000848401525b50505050565b60006002820490506001821680612e9d57607f821691505b60208210811415612eb157612eb0612f8f565b5b50919050565b6000612ec282612e39565b91507fffffffffffffffffffffffffffffffffffffffffffffffffffffffffffffffff821415612ef557612ef4612f31565b5b600182019050919050565b6000612f0b82612e39565b9150612f1683612e39565b925082612f2657612f25612f60565b5b828206905092915050565b7f4e487b7100000000000000000000000000000000000000000000000000000000600052601160045260246000fd5b7f4e487b7100000000000000000000000000000000000000000000000000000000600052601260045260246000fd5b7f4e487b7100000000000000000000000000000000000000000000000000000000600052602260045260246000fd5b7f4e487b7100000000000000000000000000000000000000000000000000000000600052604160045260246000fd5b6000601f19601f8301169050919050565b61300781612dcf565b811461301257600080fd5b50565b61301e81612de1565b811461302957600080fd5b50565b61303581612ded565b811461304057600080fd5b50565b61304c81612e39565b811461305757600080fd5b5056fe4142434445464748494a4b4c4d4e4f505152535455565758595a6162636465666768696a6b6c6d6e6f707172737475767778797a303132333435363738392b2fa26469706673582212200e9881fe91ad4ee27e47d4eeeadc5952f76512340a0e33a44a817f904dd6e8b464736f6c63430008000033",
  "linkReferences": {},
  "deployedLinkReferences": {}
}