{
  "_format": "hh-sol-artifact-1",
  "contractName": "RandomSVG",
  "sourceName": "contracts/randomSVG.sol",
  "abi": [
    {
      "inputs": [
        {
          "internalType": "address",
          "name": "_VRFCoordinator",
          "type": "address"
        },
        {
          "internalType": "address",
          "name": "_LinkToken",
          "type": "address"
        },
        {
          "internalType": "bytes32",
          "name": "_keyhash",
          "type": "bytes32"
        },
        {
          "internalType": "uint256",
          "name": "_fee",
          "type": "uint256"
        }
      ],
      "stateMutability": "nonpayable",
      "type": "constructor"
    },
    {
      "anonymous": false,
      "inputs": [
        {
          "indexed": true,
          "internalType": "address",
          "name": "owner",
          "type": "address"
        },
        {
          "indexed": true,
          "internalType": "address",
          "name": "approved",
          "type": "address"
        },
        {
          "indexed": true,
          "internalType": "uint256",
          "name": "tokenId",
          "type": "uint256"
        }
      ],
      "name": "Approval",
      "type": "event"
    },
    {
      "anonymous": false,
      "inputs": [
        {
          "indexed": true,
          "internalType": "address",
          "name": "owner",
          "type": "address"
        },
        {
          "indexed": true,
          "internalType": "address",
          "name": "operator",
          "type": "address"
        },
        {
          "indexed": false,
          "internalType": "bool",
          "name": "approved",
          "type": "bool"
        }
      ],
      "name": "ApprovalForAll",
      "type": "event"
    },
    {
      "anonymous": false,
      "inputs": [
        {
          "indexed": true,
          "internalType": "uint256",
          "name": "tokenId",
          "type": "uint256"
        },
        {
          "indexed": false,
          "internalType": "string",
          "name": "tokenURI",
          "type": "string"
        }
      ],
      "name": "CreatedRandomSVG",
      "type": "event"
    },
    {
      "anonymous": false,
      "inputs": [
        {
          "indexed": true,
          "internalType": "uint256",
          "name": "tokenId",
          "type": "uint256"
        },
        {
          "indexed": false,
          "internalType": "uint256",
          "name": "randomNumber",
          "type": "uint256"
        }
      ],
      "name": "CreatedUnfinishedRandomSVG",
      "type": "event"
    },
    {
      "anonymous": false,
      "inputs": [
        {
          "indexed": true,
          "internalType": "address",
          "name": "previousOwner",
          "type": "address"
        },
        {
          "indexed": true,
          "internalType": "address",
          "name": "newOwner",
          "type": "address"
        }
      ],
      "name": "OwnershipTransferred",
      "type": "event"
    },
    {
      "anonymous": false,
      "inputs": [
        {
          "indexed": true,
          "internalType": "address",
          "name": "from",
          "type": "address"
        },
        {
          "indexed": true,
          "internalType": "address",
          "name": "to",
          "type": "address"
        },
        {
          "indexed": true,
          "internalType": "uint256",
          "name": "tokenId",
          "type": "uint256"
        }
      ],
      "name": "Transfer",
      "type": "event"
    },
    {
      "anonymous": false,
      "inputs": [
        {
          "indexed": true,
          "internalType": "bytes32",
          "name": "requestId",
          "type": "bytes32"
        },
        {
          "indexed": true,
          "internalType": "uint256",
          "name": "tokenId",
          "type": "uint256"
        }
      ],
      "name": "requestedRandomSVG",
      "type": "event"
    },
    {
      "inputs": [
        {
          "internalType": "address",
          "name": "to",
          "type": "address"
        },
        {
          "internalType": "uint256",
          "name": "tokenId",
          "type": "uint256"
        }
      ],
      "name": "approve",
      "outputs": [],
      "stateMutability": "nonpayable",
      "type": "function"
    },
    {
      "inputs": [
        {
          "internalType": "address",
          "name": "owner",
          "type": "address"
        }
      ],
      "name": "balanceOf",
      "outputs": [
        {
          "internalType": "uint256",
          "name": "",
          "type": "uint256"
        }
      ],
      "stateMutability": "view",
      "type": "function"
    },
    {
      "inputs": [
        {
          "internalType": "uint256",
          "name": "",
          "type": "uint256"
        }
      ],
      "name": "colors",
      "outputs": [
        {
          "internalType": "string",
          "name": "",
          "type": "string"
        }
      ],
      "stateMutability": "view",
      "type": "function"
    },
    {
      "inputs": [],
      "name": "create",
      "outputs": [
        {
          "internalType": "bytes32",
          "name": "requestId",
          "type": "bytes32"
        }
      ],
      "stateMutability": "payable",
      "type": "function"
    },
    {
      "inputs": [
        {
          "internalType": "uint256",
          "name": "_tokenId",
          "type": "uint256"
        }
      ],
      "name": "finishMint",
      "outputs": [],
      "stateMutability": "nonpayable",
      "type": "function"
    },
    {
      "inputs": [
        {
          "internalType": "string",
          "name": "_imageURI",
          "type": "string"
        }
      ],
      "name": "formatTokenURI",
      "outputs": [
        {
          "internalType": "string",
          "name": "",
          "type": "string"
        }
      ],
      "stateMutability": "pure",
      "type": "function"
    },
    {
      "inputs": [
        {
          "internalType": "uint256",
          "name": "_randomness",
          "type": "uint256"
        }
      ],
      "name": "generatePath",
      "outputs": [
        {
          "internalType": "string",
          "name": "pathSvg",
          "type": "string"
        }
      ],
      "stateMutability": "view",
      "type": "function"
    },
    {
      "inputs": [
        {
          "internalType": "uint256",
          "name": "_randomness",
          "type": "uint256"
        }
      ],
      "name": "generatePathCommand",
      "outputs": [
        {
          "internalType": "string",
          "name": "pathCommand",
          "type": "string"
        }
      ],
      "stateMutability": "view",
      "type": "function"
    },
    {
      "inputs": [
        {
          "internalType": "uint256",
          "name": "_randomness",
          "type": "uint256"
        }
      ],
      "name": "generateSVG",
      "outputs": [
        {
          "internalType": "string",
          "name": "finalSvg",
          "type": "string"
        }
      ],
      "stateMutability": "view",
      "type": "function"
    },
    {
      "inputs": [
        {
          "internalType": "uint256",
          "name": "tokenId",
          "type": "uint256"
        }
      ],
      "name": "getApproved",
      "outputs": [
        {
          "internalType": "address",
          "name": "",
          "type": "address"
        }
      ],
      "stateMutability": "view",
      "type": "function"
    },
    {
      "inputs": [
        {
          "internalType": "address",
          "name": "owner",
          "type": "address"
        },
        {
          "internalType": "address",
          "name": "operator",
          "type": "address"
        }
      ],
      "name": "isApprovedForAll",
      "outputs": [
        {
          "internalType": "bool",
          "name": "",
          "type": "bool"
        }
      ],
      "stateMutability": "view",
      "type": "function"
    },
    {
      "inputs": [],
      "name": "maxNumberOfPathCommands",
      "outputs": [
        {
          "internalType": "uint256",
          "name": "",
          "type": "uint256"
        }
      ],
      "stateMutability": "view",
      "type": "function"
    },
    {
      "inputs": [],
      "name": "maxNumberOfPaths",
      "outputs": [
        {
          "internalType": "uint256",
          "name": "",
          "type": "uint256"
        }
      ],
      "stateMutability": "view",
      "type": "function"
    },
    {
      "inputs": [],
      "name": "name",
      "outputs": [
        {
          "internalType": "string",
          "name": "",
          "type": "string"
        }
      ],
      "stateMutability": "view",
      "type": "function"
    },
    {
      "inputs": [],
      "name": "owner",
      "outputs": [
        {
          "internalType": "address",
          "name": "",
          "type": "address"
        }
      ],
      "stateMutability": "view",
      "type": "function"
    },
    {
      "inputs": [
        {
          "internalType": "uint256",
          "name": "tokenId",
          "type": "uint256"
        }
      ],
      "name": "ownerOf",
      "outputs": [
        {
          "internalType": "address",
          "name": "",
          "type": "address"
        }
      ],
      "stateMutability": "view",
      "type": "function"
    },
    {
      "inputs": [
        {
          "internalType": "uint256",
          "name": "",
          "type": "uint256"
        }
      ],
      "name": "pathCommands",
      "outputs": [
        {
          "internalType": "string",
          "name": "",
          "type": "string"
        }
      ],
      "stateMutability": "view",
      "type": "function"
    },
    {
      "inputs": [],
      "name": "price",
      "outputs": [
        {
          "internalType": "uint256",
          "name": "",
          "type": "uint256"
        }
      ],
      "stateMutability": "view",
      "type": "function"
    },
    {
      "inputs": [
        {
          "internalType": "bytes32",
          "name": "requestId",
          "type": "bytes32"
        },
        {
          "internalType": "uint256",
          "name": "randomness",
          "type": "uint256"
        }
      ],
      "name": "rawFulfillRandomness",
      "outputs": [],
      "stateMutability": "nonpayable",
      "type": "function"
    },
    {
      "inputs": [],
      "name": "renounceOwnership",
      "outputs": [],
      "stateMutability": "nonpayable",
      "type": "function"
    },
    {
      "inputs": [
        {
          "internalType": "bytes32",
          "name": "",
          "type": "bytes32"
        }
      ],
      "name": "requestIdToSender",
      "outputs": [
        {
          "internalType": "address",
          "name": "",
          "type": "address"
        }
      ],
      "stateMutability": "view",
      "type": "function"
    },
    {
      "inputs": [
        {
          "internalType": "bytes32",
          "name": "",
          "type": "bytes32"
        }
      ],
      "name": "requestIdToTokenId",
      "outputs": [
        {
          "internalType": "uint256",
          "name": "",
          "type": "uint256"
        }
      ],
      "stateMutability": "view",
      "type": "function"
    },
    {
      "inputs": [
        {
          "internalType": "address",
          "name": "from",
          "type": "address"
        },
        {
          "internalType": "address",
          "name": "to",
          "type": "address"
        },
        {
          "internalType": "uint256",
          "name": "tokenId",
          "type": "uint256"
        }
      ],
      "name": "safeTransferFrom",
      "outputs": [],
      "stateMutability": "nonpayable",
      "type": "function"
    },
    {
      "inputs": [
        {
          "internalType": "address",
          "name": "from",
          "type": "address"
        },
        {
          "internalType": "address",
          "name": "to",
          "type": "address"
        },
        {
          "internalType": "uint256",
          "name": "tokenId",
          "type": "uint256"
        },
        {
          "internalType": "bytes",
          "name": "_data",
          "type": "bytes"
        }
      ],
      "name": "safeTransferFrom",
      "outputs": [],
      "stateMutability": "nonpayable",
      "type": "function"
    },
    {
      "inputs": [
        {
          "internalType": "address",
          "name": "operator",
          "type": "address"
        },
        {
          "internalType": "bool",
          "name": "approved",
          "type": "bool"
        }
      ],
      "name": "setApprovalForAll",
      "outputs": [],
      "stateMutability": "nonpayable",
      "type": "function"
    },
    {
      "inputs": [],
      "name": "size",
      "outputs": [
        {
          "internalType": "uint256",
          "name": "",
          "type": "uint256"
        }
      ],
      "stateMutability": "view",
      "type": "function"
    },
    {
      "inputs": [
        {
          "internalType": "bytes4",
          "name": "interfaceId",
          "type": "bytes4"
        }
      ],
      "name": "supportsInterface",
      "outputs": [
        {
          "internalType": "bool",
          "name": "",
          "type": "bool"
        }
      ],
      "stateMutability": "view",
      "type": "function"
    },
    {
      "inputs": [
        {
          "internalType": "string",
          "name": "svg",
          "type": "string"
        }
      ],
      "name": "svgToImageURI",
      "outputs": [
        {
          "internalType": "string",
          "name": "",
          "type": "string"
        }
      ],
      "stateMutability": "pure",
      "type": "function"
    },
    {
      "inputs": [],
      "name": "symbol",
      "outputs": [
        {
          "internalType": "string",
          "name": "",
          "type": "string"
        }
      ],
      "stateMutability": "view",
      "type": "function"
    },
    {
      "inputs": [],
      "name": "tokenCounter",
      "outputs": [
        {
          "internalType": "uint256",
          "name": "",
          "type": "uint256"
        }
      ],
      "stateMutability": "view",
      "type": "function"
    },
    {
      "inputs": [
        {
          "internalType": "uint256",
          "name": "",
          "type": "uint256"
        }
      ],
      "name": "tokenIdToRandomNumber",
      "outputs": [
        {
          "internalType": "uint256",
          "name": "",
          "type": "uint256"
        }
      ],
      "stateMutability": "view",
      "type": "function"
    },
    {
      "inputs": [
        {
          "internalType": "uint256",
          "name": "tokenId",
          "type": "uint256"
        }
      ],
      "name": "tokenURI",
      "outputs": [
        {
          "internalType": "string",
          "name": "",
          "type": "string"
        }
      ],
      "stateMutability": "view",
      "type": "function"
    },
    {
      "inputs": [
        {
          "internalType": "address",
          "name": "from",
          "type": "address"
        },
        {
          "internalType": "address",
          "name": "to",
          "type": "address"
        },
        {
          "internalType": "uint256",
          "name": "tokenId",
          "type": "uint256"
        }
      ],
      "name": "transferFrom",
      "outputs": [],
      "stateMutability": "nonpayable",
      "type": "function"
    },
    {
      "inputs": [
        {
          "internalType": "address",
          "name": "newOwner",
          "type": "address"
        }
      ],
      "name": "transferOwnership",
      "outputs": [],
      "stateMutability": "nonpayable",
      "type": "function"
    },
    {
      "inputs": [],
      "name": "withdraw",
      "outputs": [],
      "stateMutability": "payable",
      "type": "function"
    }
  ],
  "bytecode": "0x60c06040523480156200001157600080fd5b506040516200572d3803806200572d8339818101604052810190620000379190620006bf565b83836040518060400160405280600981526020017f52616e646f6d53564700000000000000000000000000000000000000000000008152506040518060400160405280600581526020017f72734e46540000000000000000000000000000000000000000000000000000008152508160009080519060200190620000bd9291906200048e565b508060019080519060200190620000d69291906200048e565b5050508173ffffffffffffffffffffffffffffffffffffffff1660a08173ffffffffffffffffffffffffffffffffffffffff1660601b815250508073ffffffffffffffffffffffffffffffffffffffff1660808173ffffffffffffffffffffffffffffffffffffffff1660601b815250505050620001696200015d620003c060201b60201c565b620003c860201b60201c565b6000600c81905550662386f26fc10000600f8190555081600d8190555080600e81905550600a60108190555060056011819055506101f460128190555060405180604001604052806040518060400160405280600181526020017f4d0000000000000000000000000000000000000000000000000000000000000081525081526020016040518060400160405280600181526020017f4c000000000000000000000000000000000000000000000000000000000000008152508152506013906002620002379291906200051f565b506040518060c001604052806040518060400160405280600381526020017f726564000000000000000000000000000000000000000000000000000000000081525081526020016040518060400160405280600481526020017f626c75650000000000000000000000000000000000000000000000000000000081525081526020016040518060400160405280600581526020017f677265656e00000000000000000000000000000000000000000000000000000081525081526020016040518060400160405280600681526020017f79656c6c6f77000000000000000000000000000000000000000000000000000081525081526020016040518060400160405280600581526020017f626c61636b00000000000000000000000000000000000000000000000000000081525081526020016040518060400160405280600581526020017f77686974650000000000000000000000000000000000000000000000000000008152508152506014906006620003b592919062000586565b505050505062000826565b600033905090565b6000600860009054906101000a900473ffffffffffffffffffffffffffffffffffffffff16905081600860006101000a81548173ffffffffffffffffffffffffffffffffffffffff021916908373ffffffffffffffffffffffffffffffffffffffff1602179055508173ffffffffffffffffffffffffffffffffffffffff168173ffffffffffffffffffffffffffffffffffffffff167f8be0079c531659141344cd1fd0a4f28419497f9722a3daafe3b4186f6b6457e060405160405180910390a35050565b8280546200049c9062000773565b90600052602060002090601f016020900481019282620004c057600085556200050c565b82601f10620004db57805160ff19168380011785556200050c565b828001600101855582156200050c579182015b828111156200050b578251825591602001919060010190620004ee565b5b5090506200051b9190620005ed565b5090565b82805482825590600052602060002090810192821562000573579160200282015b8281111562000572578251829080519060200190620005619291906200048e565b509160200191906001019062000540565b5b5090506200058291906200060c565b5090565b828054828255906000526020600020908101928215620005da579160200282015b82811115620005d9578251829080519060200190620005c89291906200048e565b5091602001919060010190620005a7565b5b509050620005e991906200060c565b5090565b5b8082111562000608576000816000905550600101620005ee565b5090565b5b8082111562000630576000818162000626919062000634565b506001016200060d565b5090565b508054620006429062000773565b6000825580601f1062000656575062000677565b601f016020900490600052602060002090810190620006769190620005ed565b5b50565b6000815190506200068b81620007d8565b92915050565b600081519050620006a281620007f2565b92915050565b600081519050620006b9816200080c565b92915050565b60008060008060808587031215620006d657600080fd5b6000620006e6878288016200067a565b9450506020620006f9878288016200067a565b93505060406200070c8782880162000691565b92505060606200071f87828801620006a8565b91505092959194509250565b6000620007388262000749565b9050919050565b6000819050919050565b600073ffffffffffffffffffffffffffffffffffffffff82169050919050565b6000819050919050565b600060028204905060018216806200078c57607f821691505b60208210811415620007a357620007a2620007a9565b5b50919050565b7f4e487b7100000000000000000000000000000000000000000000000000000000600052602260045260246000fd5b620007e3816200072b565b8114620007ef57600080fd5b50565b620007fd816200073f565b81146200080957600080fd5b50565b620008178162000769565b81146200082357600080fd5b50565b60805160601c60a05160601c614ed462000859600039600081816114be0152612a8a01526000612a4e0152614ed46000f3fe6080604052600436106102045760003560e01c806371aee19311610118578063b88d4fde116100a0578063c87b56dd1161006f578063c87b56dd146107cc578063d082e38114610809578063e985e9c514610834578063efc81a8c14610871578063f2fde38b1461088f57610204565b8063b88d4fde146106fe578063bd11f69d14610727578063c21bf36f14610764578063c68b49d11461078f57610204565b8063955968d4116100e7578063955968d41461060557806395d89b41146106425780639c1cd7951461066d578063a035b1fe146106aa578063a22cb465146106d557610204565b806371aee193146105495780638da5cb5b1461058657806394985ddd146105b1578063949d225d146105da57610204565b806333af59891161019b578063624194c71161016a578063624194c7146104525780636352211e1461047b5780636dcee4ca146104b857806370a08231146104f5578063715018a61461053257610204565b806333af5989146103b75780633ccfd60b146103f457806342842e0e146103fe57806348e896ab1461042757610204565b8063219c0eee116101d7578063219c0eee146102d757806322881f881461031457806323b872dd1461035157806330d871c61461037a57610204565b806301ffc9a71461020957806306fdde0314610246578063081812fc14610271578063095ea7b3146102ae575b600080fd5b34801561021557600080fd5b50610230600480360381019061022b91906135f9565b6108b8565b60405161023d9190614587565b60405180910390f35b34801561025257600080fd5b5061025b61099a565b604051610268919061462b565b60405180910390f35b34801561027d57600080fd5b506102986004803603810190610293919061368c565b610a2c565b6040516102a591906144e2565b60405180910390f35b3480156102ba57600080fd5b506102d560048036038101906102d0919061352f565b610ab1565b005b3480156102e357600080fd5b506102fe60048036038101906102f99190613594565b610bc9565b60405161030b91906144e2565b60405180910390f35b34801561032057600080fd5b5061033b60048036038101906103369190613594565b610bfc565b604051610348919061492d565b60405180910390f35b34801561035d57600080fd5b5061037860048036038101906103739190613429565b610c14565b005b34801561038657600080fd5b506103a1600480360381019061039c919061364b565b610c74565b6040516103ae919061462b565b60405180910390f35b3480156103c357600080fd5b506103de60048036038101906103d9919061368c565b610d07565b6040516103eb919061462b565b60405180910390f35b6103fc610ef3565b005b34801561040a57600080fd5b5061042560048036038101906104209190613429565b610fbf565b005b34801561043357600080fd5b5061043c610fdf565b604051610449919061492d565b60405180910390f35b34801561045e57600080fd5b506104796004803603810190610474919061368c565b610fe5565b005b34801561048757600080fd5b506104a2600480360381019061049d919061368c565b611154565b6040516104af91906144e2565b60405180910390f35b3480156104c457600080fd5b506104df60048036038101906104da919061368c565b611206565b6040516104ec919061462b565b60405180910390f35b34801561050157600080fd5b5061051c600480360381019061051791906133c4565b611302565b604051610529919061492d565b60405180910390f35b34801561053e57600080fd5b506105476113ba565b005b34801561055557600080fd5b50610570600480360381019061056b919061364b565b611442565b60405161057d919061462b565b60405180910390f35b34801561059257600080fd5b5061059b611492565b6040516105a891906144e2565b60405180910390f35b3480156105bd57600080fd5b506105d860048036038101906105d391906135bd565b6114bc565b005b3480156105e657600080fd5b506105ef611558565b6040516105fc919061492d565b60405180910390f35b34801561061157600080fd5b5061062c6004803603810190610627919061368c565b61155e565b604051610639919061462b565b60405180910390f35b34801561064e57600080fd5b5061065761160a565b604051610664919061462b565b60405180910390f35b34801561067957600080fd5b50610694600480360381019061068f919061368c565b61169c565b6040516106a1919061492d565b60405180910390f35b3480156106b657600080fd5b506106bf6116b4565b6040516106cc919061492d565b60405180910390f35b3480156106e157600080fd5b506106fc60048036038101906106f791906134f3565b6116ba565b005b34801561070a57600080fd5b5061072560048036038101906107209190613478565b61183b565b005b34801561073357600080fd5b5061074e6004803603810190610749919061368c565b61189d565b60405161075b919061462b565b60405180910390f35b34801561077057600080fd5b50610779611949565b604051610786919061492d565b60405180910390f35b34801561079b57600080fd5b506107b660048036038101906107b1919061368c565b61194f565b6040516107c3919061462b565b60405180910390f35b3480156107d857600080fd5b506107f360048036038101906107ee919061368c565b611b0e565b604051610800919061462b565b60405180910390f35b34801561081557600080fd5b5061081e611c60565b60405161082b919061492d565b60405180910390f35b34801561084057600080fd5b5061085b600480360381019061085691906133ed565b611c66565b6040516108689190614587565b60405180910390f35b610879611cfa565b60405161088691906145a2565b60405180910390f35b34801561089b57600080fd5b506108b660048036038101906108b191906133c4565b611e09565b005b60007f80ac58cd000000000000000000000000000000000000000000000000000000007bffffffffffffffffffffffffffffffffffffffffffffffffffffffff1916827bffffffffffffffffffffffffffffffffffffffffffffffffffffffff1916148061098357507f5b5e139f000000000000000000000000000000000000000000000000000000007bffffffffffffffffffffffffffffffffffffffffffffffffffffffff1916827bffffffffffffffffffffffffffffffffffffffffffffffffffffffff1916145b80610993575061099282611f01565b5b9050919050565b6060600080546109a990614c5e565b80601f01602080910402602001604051908101604052809291908181526020018280546109d590614c5e565b8015610a225780601f106109f757610100808354040283529160200191610a22565b820191906000526020600020905b815481529060010190602001808311610a0557829003601f168201915b5050505050905090565b6000610a3782611f6b565b610a76576040517f08c379a0000000000000000000000000000000000000000000000000000000008152600401610a6d9061482d565b60405180910390fd5b6004600083815260200190815260200160002060009054906101000a900473ffffffffffffffffffffffffffffffffffffffff169050919050565b6000610abc82611154565b90508073ffffffffffffffffffffffffffffffffffffffff168373ffffffffffffffffffffffffffffffffffffffff161415610b2d576040517f08c379a0000000000000000000000000000000000000000000000000000000008152600401610b24906148ed565b60405180910390fd5b8073ffffffffffffffffffffffffffffffffffffffff16610b4c611fd7565b73ffffffffffffffffffffffffffffffffffffffff161480610b7b5750610b7a81610b75611fd7565b611c66565b5b610bba576040517f08c379a0000000000000000000000000000000000000000000000000000000008152600401610bb19061474d565b60405180910390fd5b610bc48383611fdf565b505050565b60096020528060005260406000206000915054906101000a900473ffffffffffffffffffffffffffffffffffffffff1681565b600a6020528060005260406000206000915090505481565b610c25610c1f611fd7565b82612098565b610c64576040517f08c379a0000000000000000000000000000000000000000000000000000000008152600401610c5b9061490d565b60405180910390fd5b610c6f838383612176565b505050565b606060006040518060400160405280601a81526020017f646174613a696d6167652f7376672b786d6c3b6261736536342c00000000000081525090506000610cda84604051602001610cc6919061435a565b6040516020818303038152906040526123d2565b90508181604051602001610cef929190614371565b60405160208183030381529060405292505050919050565b60606000600160115484610d1b9190614ced565b610d259190614a45565b90506040518060400160405280600981526020017f3c7061746820643d270000000000000000000000000000000000000000000000815250915060005b81811015610de7576000610dad8583601254610d7e9190614a45565b604051602001610d8f929190614948565b6040516020818303038152906040528051906020012060001c61194f565b90508381604051602001610dc2929190614371565b6040516020818303038152906040529350508080610ddf90614c90565b915050610d62565b5060006014808054905085610dfc9190614ced565b81548110610e33577f4e487b7100000000000000000000000000000000000000000000000000000000600052603260045260246000fd5b906000526020600020018054610e4890614c5e565b80601f0160208091040260200160405190810160405280929190818152602001828054610e7490614c5e565b8015610ec15780601f10610e9657610100808354040283529160200191610ec1565b820191906000526020600020905b815481529060010190602001808311610ea457829003601f168201915b505050505090508281604051602001610edb929190614395565b60405160208183030381529060405292505050919050565b610efb611fd7565b73ffffffffffffffffffffffffffffffffffffffff16610f19611492565b73ffffffffffffffffffffffffffffffffffffffff1614610f6f576040517f08c379a0000000000000000000000000000000000000000000000000000000008152600401610f669061484d565b60405180910390fd5b610f77611492565b73ffffffffffffffffffffffffffffffffffffffff166108fc479081150290604051600060405180830381858888f19350505050158015610fbc573d6000803e3d6000fd5b50565b610fda8383836040518060200160405280600081525061183b565b505050565b60115481565b6000610ff082611b0e565b511115611032576040517f08c379a00000000000000000000000000000000000000000000000000000000081526004016110299061470d565b60405180910390fd5b80600c5411611076576040517f08c379a000000000000000000000000000000000000000000000000000000000815260040161106d906147cd565b60405180910390fd5b6000600b600083815260200190815260200160002054116110cc576040517f08c379a00000000000000000000000000000000000000000000000000000000081526004016110c3906146ad565b60405180910390fd5b6000600b600083815260200190815260200160002054905060006110ef82611206565b905060006110fc82610c74565b9050600061110982611442565b90506111158582612571565b847f15a6487b7915a7116ce2a61d43b17e9b47484b1931f3c79f2f3d139b307b389384604051611145919061462b565b60405180910390a25050505050565b6000806002600084815260200190815260200160002060009054906101000a900473ffffffffffffffffffffffffffffffffffffffff169050600073ffffffffffffffffffffffffffffffffffffffff168173ffffffffffffffffffffffffffffffffffffffff1614156111fd576040517f08c379a00000000000000000000000000000000000000000000000000000000081526004016111f49061478d565b60405180910390fd5b80915050919050565b6060600060016010548461121a9190614ced565b6112249190614a45565b90506112316012546125e5565b61123c6012546125e5565b60405160200161124d92919061447b565b604051602081830303815290604052915060005b818110156112d957600061129f8583604051602001611281929190614948565b6040516020818303038152906040528051906020012060001c610d07565b905083816040516020016112b4929190614371565b60405160208183030381529060405293505080806112d190614c90565b915050611261565b50816040516020016112eb9190614416565b604051602081830303815290604052915050919050565b60008073ffffffffffffffffffffffffffffffffffffffff168273ffffffffffffffffffffffffffffffffffffffff161415611373576040517f08c379a000000000000000000000000000000000000000000000000000000000815260040161136a9061476d565b60405180910390fd5b600360008373ffffffffffffffffffffffffffffffffffffffff1673ffffffffffffffffffffffffffffffffffffffff168152602001908152602001600020549050919050565b6113c2611fd7565b73ffffffffffffffffffffffffffffffffffffffff166113e0611492565b73ffffffffffffffffffffffffffffffffffffffff1614611436576040517f08c379a000000000000000000000000000000000000000000000000000000000815260040161142d9061484d565b60405180910390fd5b61144060006127ba565b565b606061146c826040516020016114589190614438565b6040516020818303038152906040526123d2565b60405160200161147c91906144c0565b6040516020818303038152906040529050919050565b6000600860009054906101000a900473ffffffffffffffffffffffffffffffffffffffff16905090565b7f000000000000000000000000000000000000000000000000000000000000000073ffffffffffffffffffffffffffffffffffffffff163373ffffffffffffffffffffffffffffffffffffffff161461154a576040517f08c379a0000000000000000000000000000000000000000000000000000000008152600401611541906148ad565b60405180910390fd5b6115548282612880565b5050565b60125481565b6013818154811061156e57600080fd5b90600052602060002001600091509050805461158990614c5e565b80601f01602080910402602001604051908101604052809291908181526020018280546115b590614c5e565b80156116025780601f106115d757610100808354040283529160200191611602565b820191906000526020600020905b8154815290600101906020018083116115e557829003601f168201915b505050505081565b60606001805461161990614c5e565b80601f016020809104026020016040519081016040528092919081815260200182805461164590614c5e565b80156116925780601f1061166757610100808354040283529160200191611692565b820191906000526020600020905b81548152906001019060200180831161167557829003601f168201915b5050505050905090565b600b6020528060005260406000206000915090505481565b600f5481565b6116c2611fd7565b73ffffffffffffffffffffffffffffffffffffffff168273ffffffffffffffffffffffffffffffffffffffff161415611730576040517f08c379a0000000000000000000000000000000000000000000000000000000008152600401611727906146ed565b60405180910390fd5b806005600061173d611fd7565b73ffffffffffffffffffffffffffffffffffffffff1673ffffffffffffffffffffffffffffffffffffffff16815260200190815260200160002060008473ffffffffffffffffffffffffffffffffffffffff1673ffffffffffffffffffffffffffffffffffffffff16815260200190815260200160002060006101000a81548160ff0219169083151502179055508173ffffffffffffffffffffffffffffffffffffffff166117ea611fd7565b73ffffffffffffffffffffffffffffffffffffffff167f17307eab39ab6107e8899845ad3d59bd9653f200f220920489ca2b5937696c318360405161182f9190614587565b60405180910390a35050565b61184c611846611fd7565b83612098565b61188b576040517f08c379a00000000000000000000000000000000000000000000000000000000081526004016118829061490d565b60405180910390fd5b61189784848484612930565b50505050565b601481815481106118ad57600080fd5b9060005260206000200160009150905080546118c890614c5e565b80601f01602080910402602001604051908101604052809291908181526020018280546118f490614c5e565b80156119415780601f1061191657610100808354040283529160200191611941565b820191906000526020600020905b81548152906001019060200180831161192457829003601f168201915b505050505081565b60105481565b606060138080549050836119639190614ced565b8154811061199a577f4e487b7100000000000000000000000000000000000000000000000000000000600052603260045260246000fd5b9060005260206000200180546119af90614c5e565b80601f01602080910402602001604051908101604052809291908181526020018280546119db90614c5e565b8015611a285780601f106119fd57610100808354040283529160200191611a28565b820191906000526020600020905b815481529060010190602001808311611a0b57829003601f168201915b505050505090506000601254836002601254611a449190614b03565b604051602001611a55929190614948565b6040516020818303038152906040528051906020012060001c611a789190614ced565b905060006012548460016002601254611a919190614b03565b611a9b9190614a45565b604051602001611aac929190614948565b6040516020818303038152906040528051906020012060001c611acf9190614ced565b905082611adb836125e5565b611ae4836125e5565b604051602001611af6939291906143cf565b60405160208183030381529060405292505050919050565b6060611b1982611f6b565b611b58576040517f08c379a0000000000000000000000000000000000000000000000000000000008152600401611b4f9061480d565b60405180910390fd5b6000600660008481526020019081526020016000208054611b7890614c5e565b80601f0160208091040260200160405190810160405280929190818152602001828054611ba490614c5e565b8015611bf15780601f10611bc657610100808354040283529160200191611bf1565b820191906000526020600020905b815481529060010190602001808311611bd457829003601f168201915b505050505090506000611c0261298c565b9050600081511415611c18578192505050611c5b565b600082511115611c4d578082604051602001611c35929190614371565b60405160208183030381529060405292505050611c5b565b611c56846129a3565b925050505b919050565b600c5481565b6000600560008473ffffffffffffffffffffffffffffffffffffffff1673ffffffffffffffffffffffffffffffffffffffff16815260200190815260200160002060008373ffffffffffffffffffffffffffffffffffffffff1673ffffffffffffffffffffffffffffffffffffffff16815260200190815260200160002060009054906101000a900460ff16905092915050565b6000600f54341015611d41576040517f08c379a0000000000000000000000000000000000000000000000000000000008152600401611d38906148cd565b60405180910390fd5b611d4f600d54600e54612a4a565b9050336009600083815260200190815260200160002060006101000a81548173ffffffffffffffffffffffffffffffffffffffff021916908373ffffffffffffffffffffffffffffffffffffffff1602179055506000600c54905080600a6000848152602001908152602001600020819055506001600c54611dd19190614a45565b600c8190555080827fb97343f1f2afc4959f818046ccae28fd7b05fcd2b7a7dc651cbb52a096cae03560405160405180910390a35090565b611e11611fd7565b73ffffffffffffffffffffffffffffffffffffffff16611e2f611492565b73ffffffffffffffffffffffffffffffffffffffff1614611e85576040517f08c379a0000000000000000000000000000000000000000000000000000000008152600401611e7c9061484d565b60405180910390fd5b600073ffffffffffffffffffffffffffffffffffffffff168173ffffffffffffffffffffffffffffffffffffffff161415611ef5576040517f08c379a0000000000000000000000000000000000000000000000000000000008152600401611eec9061466d565b60405180910390fd5b611efe816127ba565b50565b60007f01ffc9a7000000000000000000000000000000000000000000000000000000007bffffffffffffffffffffffffffffffffffffffffffffffffffffffff1916827bffffffffffffffffffffffffffffffffffffffffffffffffffffffff1916149050919050565b60008073ffffffffffffffffffffffffffffffffffffffff166002600084815260200190815260200160002060009054906101000a900473ffffffffffffffffffffffffffffffffffffffff1673ffffffffffffffffffffffffffffffffffffffff1614159050919050565b600033905090565b816004600083815260200190815260200160002060006101000a81548173ffffffffffffffffffffffffffffffffffffffff021916908373ffffffffffffffffffffffffffffffffffffffff160217905550808273ffffffffffffffffffffffffffffffffffffffff1661205283611154565b73ffffffffffffffffffffffffffffffffffffffff167f8c5be1e5ebec7d5bd14f71427d1e84f3dd0314c0f7b2291e5b200ac8c7c3b92560405160405180910390a45050565b60006120a382611f6b565b6120e2576040517f08c379a00000000000000000000000000000000000000000000000000000000081526004016120d99061472d565b60405180910390fd5b60006120ed83611154565b90508073ffffffffffffffffffffffffffffffffffffffff168473ffffffffffffffffffffffffffffffffffffffff16148061215c57508373ffffffffffffffffffffffffffffffffffffffff1661214484610a2c565b73ffffffffffffffffffffffffffffffffffffffff16145b8061216d575061216c8185611c66565b5b91505092915050565b8273ffffffffffffffffffffffffffffffffffffffff1661219682611154565b73ffffffffffffffffffffffffffffffffffffffff16146121ec576040517f08c379a00000000000000000000000000000000000000000000000000000000081526004016121e39061486d565b60405180910390fd5b600073ffffffffffffffffffffffffffffffffffffffff168273ffffffffffffffffffffffffffffffffffffffff16141561225c576040517f08c379a0000000000000000000000000000000000000000000000000000000008152600401612253906146cd565b60405180910390fd5b612267838383612bac565b612272600082611fdf565b6001600360008573ffffffffffffffffffffffffffffffffffffffff1673ffffffffffffffffffffffffffffffffffffffff16815260200190815260200160002060008282546122c29190614b5d565b925050819055506001600360008473ffffffffffffffffffffffffffffffffffffffff1673ffffffffffffffffffffffffffffffffffffffff16815260200190815260200160002060008282546123199190614a45565b92505081905550816002600083815260200190815260200160002060006101000a81548173ffffffffffffffffffffffffffffffffffffffff021916908373ffffffffffffffffffffffffffffffffffffffff160217905550808273ffffffffffffffffffffffffffffffffffffffff168473ffffffffffffffffffffffffffffffffffffffff167fddf252ad1be2c89b69c2b068fc378daa952ba7f163c4a11628f55a4df523b3ef60405160405180910390a4505050565b60606000825114156123f55760405180602001604052806000815250905061256c565b6000604051806060016040528060408152602001614e5f60409139905060006003600285516124249190614a45565b61242e9190614ad2565b600461243a9190614b03565b9050600060208261244b9190614a45565b67ffffffffffffffff81111561248a577f4e487b7100000000000000000000000000000000000000000000000000000000600052604160045260246000fd5b6040519080825280601f01601f1916602001820160405280156124bc5781602001600182028036833780820191505090505b509050818152600183018586518101602084015b8183101561252b576003830192508251603f8160121c168501518253600182019150603f81600c1c168501518253600182019150603f8160061c168501518253600182019150603f81168501518253600182019150506124d0565b600389510660018114612545576002811461255557612560565b613d3d60f01b6002830352612560565b603d60f81b60018303525b50505050508093505050505b919050565b61257a82611f6b565b6125b9576040517f08c379a00000000000000000000000000000000000000000000000000000000081526004016125b0906147ad565b60405180910390fd5b806006600084815260200190815260200160002090805190602001906125e09291906131be565b505050565b6060600082141561262d576040518060400160405280600181526020017f300000000000000000000000000000000000000000000000000000000000000081525090506127b5565b600082905060005b6000821461265f57808061264890614c90565b915050600a826126589190614ad2565b9150612635565b60008167ffffffffffffffff8111156126a1577f4e487b7100000000000000000000000000000000000000000000000000000000600052604160045260246000fd5b6040519080825280601f01601f1916602001820160405280156126d35781602001600182028036833780820191505090505b50905060008290505b600086146127ad576001816126f19190614b5d565b90506000600a80886127039190614ad2565b61270d9190614b03565b876127189190614b5d565b60306127249190614a9b565b905060008160f81b905080848481518110612768577f4e487b7100000000000000000000000000000000000000000000000000000000600052603260045260246000fd5b60200101907effffffffffffffffffffffffffffffffffffffffffffffffffffffffffffff1916908160001a905350600a886127a49190614ad2565b975050506126dc565b819450505050505b919050565b6000600860009054906101000a900473ffffffffffffffffffffffffffffffffffffffff16905081600860006101000a81548173ffffffffffffffffffffffffffffffffffffffff021916908373ffffffffffffffffffffffffffffffffffffffff1602179055508173ffffffffffffffffffffffffffffffffffffffff168173ffffffffffffffffffffffffffffffffffffffff167f8be0079c531659141344cd1fd0a4f28419497f9722a3daafe3b4186f6b6457e060405160405180910390a35050565b60006009600084815260200190815260200160002060009054906101000a900473ffffffffffffffffffffffffffffffffffffffff1690506000600a60008581526020019081526020016000205490506128da8282612bb1565b82600b600083815260200190815260200160002081905550807faad5362ce528ed941024b95d4c18dfd49b8503e1f586a5c353631d98c2af41b784604051612922919061492d565b60405180910390a250505050565b61293b848484612176565b61294784848484612bcf565b612986576040517f08c379a000000000000000000000000000000000000000000000000000000000815260040161297d9061464d565b60405180910390fd5b50505050565b606060405180602001604052806000815250905090565b60606129ae82611f6b565b6129ed576040517f08c379a00000000000000000000000000000000000000000000000000000000081526004016129e49061488d565b60405180910390fd5b60006129f761298c565b90506000815111612a175760405180602001604052806000815250612a42565b80612a2184612d66565b604051602001612a32929190614371565b6040516020818303038152906040525b915050919050565b60007f000000000000000000000000000000000000000000000000000000000000000073ffffffffffffffffffffffffffffffffffffffff16634000aea07f000000000000000000000000000000000000000000000000000000000000000084866000604051602001612abe9291906145bd565b6040516020818303038152906040526040518463ffffffff1660e01b8152600401612aeb93929190614549565b602060405180830381600087803b158015612b0557600080fd5b505af1158015612b19573d6000803e3d6000fd5b505050506040513d601f19601f82011682018060405250810190612b3d919061356b565b506000612b60846000306007600089815260200190815260200160002054612f13565b905060016007600086815260200190815260200160002054612b829190614a45565b6007600086815260200190815260200160002081905550612ba38482612f4f565b91505092915050565b505050565b612bcb828260405180602001604052806000815250612f82565b5050565b6000612bf08473ffffffffffffffffffffffffffffffffffffffff16612fdd565b15612d59578373ffffffffffffffffffffffffffffffffffffffff1663150b7a02612c19611fd7565b8786866040518563ffffffff1660e01b8152600401612c3b94939291906144fd565b602060405180830381600087803b158015612c5557600080fd5b505af1925050508015612c8657506040513d601f19601f82011682018060405250810190612c839190613622565b60015b612d09573d8060008114612cb6576040519150601f19603f3d011682016040523d82523d6000602084013e612cbb565b606091505b50600081511415612d01576040517f08c379a0000000000000000000000000000000000000000000000000000000008152600401612cf89061464d565b60405180910390fd5b805181602001fd5b63150b7a0260e01b7bffffffffffffffffffffffffffffffffffffffffffffffffffffffff1916817bffffffffffffffffffffffffffffffffffffffffffffffffffffffff191614915050612d5e565b600190505b949350505050565b60606000821415612dae576040518060400160405280600181526020017f30000000000000000000000000000000000000000000000000000000000000008152509050612f0e565b600082905060005b60008214612de0578080612dc990614c90565b915050600a82612dd99190614ad2565b9150612db6565b60008167ffffffffffffffff811115612e22577f4e487b7100000000000000000000000000000000000000000000000000000000600052604160045260246000fd5b6040519080825280601f01601f191660200182016040528015612e545781602001600182028036833780820191505090505b5090505b60008514612f0757600182612e6d9190614b5d565b9150600a85612e7c9190614ced565b6030612e889190614a45565b60f81b818381518110612ec4577f4e487b7100000000000000000000000000000000000000000000000000000000600052603260045260246000fd5b60200101907effffffffffffffffffffffffffffffffffffffffffffffffffffffffffffff1916908160001a905350600a85612f009190614ad2565b9450612e58565b8093505050505b919050565b600084848484604051602001612f2c94939291906145e6565b6040516020818303038152906040528051906020012060001c9050949350505050565b60008282604051602001612f6492919061432e565b60405160208183030381529060405280519060200120905092915050565b612f8c8383612ff0565b612f996000848484612bcf565b612fd8576040517f08c379a0000000000000000000000000000000000000000000000000000000008152600401612fcf9061464d565b60405180910390fd5b505050565b600080823b905060008111915050919050565b600073ffffffffffffffffffffffffffffffffffffffff168273ffffffffffffffffffffffffffffffffffffffff161415613060576040517f08c379a0000000000000000000000000000000000000000000000000000000008152600401613057906147ed565b60405180910390fd5b61306981611f6b565b156130a9576040517f08c379a00000000000000000000000000000000000000000000000000000000081526004016130a09061468d565b60405180910390fd5b6130b560008383612bac565b6001600360008473ffffffffffffffffffffffffffffffffffffffff1673ffffffffffffffffffffffffffffffffffffffff16815260200190815260200160002060008282546131059190614a45565b92505081905550816002600083815260200190815260200160002060006101000a81548173ffffffffffffffffffffffffffffffffffffffff021916908373ffffffffffffffffffffffffffffffffffffffff160217905550808273ffffffffffffffffffffffffffffffffffffffff16600073ffffffffffffffffffffffffffffffffffffffff167fddf252ad1be2c89b69c2b068fc378daa952ba7f163c4a11628f55a4df523b3ef60405160405180910390a45050565b8280546131ca90614c5e565b90600052602060002090601f0160209004810192826131ec5760008555613233565b82601f1061320557805160ff1916838001178555613233565b82800160010185558215613233579182015b82811115613232578251825591602001919060010190613217565b5b5090506132409190613244565b5090565b5b8082111561325d576000816000905550600101613245565b5090565b600061327461326f846149a2565b614971565b90508281526020810184848401111561328c57600080fd5b613297848285614c1c565b509392505050565b60006132b26132ad846149d2565b614971565b9050828152602081018484840111156132ca57600080fd5b6132d5848285614c1c565b509392505050565b6000813590506132ec81614deb565b92915050565b60008135905061330181614e02565b92915050565b60008151905061331681614e02565b92915050565b60008135905061332b81614e19565b92915050565b60008135905061334081614e30565b92915050565b60008151905061335581614e30565b92915050565b600082601f83011261336c57600080fd5b813561337c848260208601613261565b91505092915050565b600082601f83011261339657600080fd5b81356133a684826020860161329f565b91505092915050565b6000813590506133be81614e47565b92915050565b6000602082840312156133d657600080fd5b60006133e4848285016132dd565b91505092915050565b6000806040838503121561340057600080fd5b600061340e858286016132dd565b925050602061341f858286016132dd565b9150509250929050565b60008060006060848603121561343e57600080fd5b600061344c868287016132dd565b935050602061345d868287016132dd565b925050604061346e868287016133af565b9150509250925092565b6000806000806080858703121561348e57600080fd5b600061349c878288016132dd565b94505060206134ad878288016132dd565b93505060406134be878288016133af565b925050606085013567ffffffffffffffff8111156134db57600080fd5b6134e78782880161335b565b91505092959194509250565b6000806040838503121561350657600080fd5b6000613514858286016132dd565b9250506020613525858286016132f2565b9150509250929050565b6000806040838503121561354257600080fd5b6000613550858286016132dd565b9250506020613561858286016133af565b9150509250929050565b60006020828403121561357d57600080fd5b600061358b84828501613307565b91505092915050565b6000602082840312156135a657600080fd5b60006135b48482850161331c565b91505092915050565b600080604083850312156135d057600080fd5b60006135de8582860161331c565b92505060206135ef858286016133af565b9150509250929050565b60006020828403121561360b57600080fd5b600061361984828501613331565b91505092915050565b60006020828403121561363457600080fd5b600061364284828501613346565b91505092915050565b60006020828403121561365d57600080fd5b600082013567ffffffffffffffff81111561367757600080fd5b61368384828501613385565b91505092915050565b60006020828403121561369e57600080fd5b60006136ac848285016133af565b91505092915050565b6136be81614b91565b82525050565b6136cd81614ba3565b82525050565b6136dc81614baf565b82525050565b6136f36136ee82614baf565b614cd9565b82525050565b600061370482614a02565b61370e8185614a18565b935061371e818560208601614c2b565b61372781614dda565b840191505092915050565b600061373d82614a0d565b6137478185614a29565b9350613757818560208601614c2b565b61376081614dda565b840191505092915050565b600061377682614a0d565b6137808185614a3a565b9350613790818560208601614c2b565b80840191505092915050565b60006137a9600983614a3a565b91507f7b226e616d65223a2200000000000000000000000000000000000000000000006000830152600982019050919050565b60006137e9603283614a29565b91507f4552433732313a207472616e7366657220746f206e6f6e20455243373231526560008301527f63656976657220696d706c656d656e74657200000000000000000000000000006020830152604082019050919050565b600061384f602683614a29565b91507f4f776e61626c653a206e6577206f776e657220697320746865207a65726f206160008301527f64647265737300000000000000000000000000000000000000000000000000006020830152604082019050919050565b60006138b5601c83614a29565b91507f4552433732313a20746f6b656e20616c7265616479206d696e746564000000006000830152602082019050919050565b60006138f5602f83614a29565b91507f4e65656420746f207761697420666f722074686520436861696e6c696e6b206e60008301527f6f646520746f20726573706f6e642100000000000000000000000000000000006020830152604082019050919050565b600061395b602483614a29565b91507f4552433732313a207472616e7366657220746f20746865207a65726f2061646460008301527f72657373000000000000000000000000000000000000000000000000000000006020830152604082019050919050565b60006139c1601983614a29565b91507f4552433732313a20617070726f766520746f2063616c6c6572000000000000006000830152602082019050919050565b6000613a01601883614a29565b91507f746f6b656e55524920697320616c7265616479207365742100000000000000006000830152602082019050919050565b6000613a41602c83614a29565b91507f4552433732313a206f70657261746f7220717565727920666f72206e6f6e657860008301527f697374656e7420746f6b656e00000000000000000000000000000000000000006020830152604082019050919050565b6000613aa7601d83614a3a565b91507f272066696c6c3d277472616e73706172656e7427207374726f6b653d270000006000830152601d82019050919050565b6000613ae7600183614a3a565b91507f20000000000000000000000000000000000000000000000000000000000000006000830152600182019050919050565b6000613b27600383614a3a565b91507f272f3e00000000000000000000000000000000000000000000000000000000006000830152600382019050919050565b6000613b67600783614a3a565b91507f535647204e4654000000000000000000000000000000000000000000000000006000830152600782019050919050565b6000613ba7603883614a29565b91507f4552433732313a20617070726f76652063616c6c6572206973206e6f74206f7760008301527f6e6572206e6f7220617070726f76656420666f7220616c6c00000000000000006020830152604082019050919050565b6000613c0d602a83614a29565b91507f4552433732313a2062616c616e636520717565727920666f7220746865207a6560008301527f726f2061646472657373000000000000000000000000000000000000000000006020830152604082019050919050565b6000613c73602983614a29565b91507f4552433732313a206f776e657220717565727920666f72206e6f6e657869737460008301527f656e7420746f6b656e00000000000000000000000000000000000000000000006020830152604082019050919050565b6000613cd9602e83614a29565b91507f45524337323155524953746f726167653a2055524920736574206f66206e6f6e60008301527f6578697374656e7420746f6b656e0000000000000000000000000000000000006020830152604082019050919050565b6000613d3f602083614a29565b91507f546f6b656e496420686173206e6f74206265656e206d696e74656420796574216000830152602082019050919050565b6000613d7f600283614a3a565b91507f227d0000000000000000000000000000000000000000000000000000000000006000830152600282019050919050565b6000613dbf602083614a29565b91507f4552433732313a206d696e7420746f20746865207a65726f20616464726573736000830152602082019050919050565b6000613dff603183614a29565b91507f45524337323155524953746f726167653a2055524920717565727920666f722060008301527f6e6f6e6578697374656e7420746f6b656e0000000000000000000000000000006020830152604082019050919050565b6000613e65602c83614a29565b91507f4552433732313a20617070726f76656420717565727920666f72206e6f6e657860008301527f697374656e7420746f6b656e00000000000000000000000000000000000000006020830152604082019050919050565b6000613ecb602083614a29565b91507f4f776e61626c653a2063616c6c6572206973206e6f7420746865206f776e65726000830152602082019050919050565b6000613f0b602983614a29565b91507f4552433732313a207472616e73666572206f6620746f6b656e2074686174206960008301527f73206e6f74206f776e00000000000000000000000000000000000000000000006020830152604082019050919050565b6000613f71603083614a3a565b91507f3c73766720786d6c6e733d27687474703a2f2f7777772e77332e6f72672f323060008301527f30302f73766727206865696768743d27000000000000000000000000000000006020830152603082019050919050565b6000613fd7602f83614a29565b91507f4552433732314d657461646174613a2055524920717565727920666f72206e6f60008301527f6e6578697374656e7420746f6b656e00000000000000000000000000000000006020830152604082019050919050565b600061403d601f83614a29565b91507f4f6e6c7920565246436f6f7264696e61746f722063616e2066756c66696c6c006000830152602082019050919050565b600061407d604383614a3a565b91507f222c20226465736372697074696f6e223a22416e204e4654206261736564206f60008301527f6e2053564721222c202261747472696275746573223a22222c2022696d61676560208301527f223a2200000000000000000000000000000000000000000000000000000000006040830152604382019050919050565b6000614109601683614a29565b91507f4e65656420746f2073656e64206d6f72652045544821000000000000000000006000830152602082019050919050565b6000614149602183614a29565b91507f4552433732313a20617070726f76616c20746f2063757272656e74206f776e6560008301527f72000000000000000000000000000000000000000000000000000000000000006020830152604082019050919050565b60006141af601d83614a3a565b91507f646174613a6170706c69636174696f6e2f6a736f6e3b6261736536342c0000006000830152601d82019050919050565b60006141ef603183614a29565b91507f4552433732313a207472616e736665722063616c6c6572206973206e6f74206f60008301527f776e6572206e6f7220617070726f7665640000000000000000000000000000006020830152604082019050919050565b6000614255600283614a3a565b91507f273e0000000000000000000000000000000000000000000000000000000000006000830152600282019050919050565b6000614295600683614a3a565b91507f3c2f7376673e00000000000000000000000000000000000000000000000000006000830152600682019050919050565b60006142d5600983614a3a565b91507f272077696474683d2700000000000000000000000000000000000000000000006000830152600982019050919050565b61431181614c05565b82525050565b61432861432382614c05565b614ce3565b82525050565b600061433a82856136e2565b60208201915061434a8284614317565b6020820191508190509392505050565b6000614366828461376b565b915081905092915050565b600061437d828561376b565b9150614389828461376b565b91508190509392505050565b60006143a1828561376b565b91506143ac82613a9a565b91506143b8828461376b565b91506143c382613b1a565b91508190509392505050565b60006143db828661376b565b91506143e682613ada565b91506143f2828561376b565b91506143fd82613ada565b9150614409828461376b565b9150819050949350505050565b6000614422828461376b565b915061442d82614288565b915081905092915050565b60006144438261379c565b915061444e82613b5a565b915061445982614070565b9150614465828461376b565b915061447082613d72565b915081905092915050565b600061448682613f64565b9150614492828561376b565b915061449d826142c8565b91506144a9828461376b565b91506144b482614248565b91508190509392505050565b60006144cb826141a2565b91506144d7828461376b565b915081905092915050565b60006020820190506144f760008301846136b5565b92915050565b600060808201905061451260008301876136b5565b61451f60208301866136b5565b61452c6040830185614308565b818103606083015261453e81846136f9565b905095945050505050565b600060608201905061455e60008301866136b5565b61456b6020830185614308565b818103604083015261457d81846136f9565b9050949350505050565b600060208201905061459c60008301846136c4565b92915050565b60006020820190506145b760008301846136d3565b92915050565b60006040820190506145d260008301856136d3565b6145df6020830184614308565b9392505050565b60006080820190506145fb60008301876136d3565b6146086020830186614308565b61461560408301856136b5565b6146226060830184614308565b95945050505050565b600060208201905081810360008301526146458184613732565b905092915050565b60006020820190508181036000830152614666816137dc565b9050919050565b6000602082019050818103600083015261468681613842565b9050919050565b600060208201905081810360008301526146a6816138a8565b9050919050565b600060208201905081810360008301526146c6816138e8565b9050919050565b600060208201905081810360008301526146e68161394e565b9050919050565b60006020820190508181036000830152614706816139b4565b9050919050565b60006020820190508181036000830152614726816139f4565b9050919050565b6000602082019050818103600083015261474681613a34565b9050919050565b6000602082019050818103600083015261476681613b9a565b9050919050565b6000602082019050818103600083015261478681613c00565b9050919050565b600060208201905081810360008301526147a681613c66565b9050919050565b600060208201905081810360008301526147c681613ccc565b9050919050565b600060208201905081810360008301526147e681613d32565b9050919050565b6000602082019050818103600083015261480681613db2565b9050919050565b6000602082019050818103600083015261482681613df2565b9050919050565b6000602082019050818103600083015261484681613e58565b9050919050565b6000602082019050818103600083015261486681613ebe565b9050919050565b6000602082019050818103600083015261488681613efe565b9050919050565b600060208201905081810360008301526148a681613fca565b9050919050565b600060208201905081810360008301526148c681614030565b9050919050565b600060208201905081810360008301526148e6816140fc565b9050919050565b600060208201905081810360008301526149068161413c565b9050919050565b60006020820190508181036000830152614926816141e2565b9050919050565b60006020820190506149426000830184614308565b92915050565b600060408201905061495d6000830185614308565b61496a6020830184614308565b9392505050565b6000604051905081810181811067ffffffffffffffff8211171561499857614997614dab565b5b8060405250919050565b600067ffffffffffffffff8211156149bd576149bc614dab565b5b601f19601f8301169050602081019050919050565b600067ffffffffffffffff8211156149ed576149ec614dab565b5b601f19601f8301169050602081019050919050565b600081519050919050565b600081519050919050565b600082825260208201905092915050565b600082825260208201905092915050565b600081905092915050565b6000614a5082614c05565b9150614a5b83614c05565b9250827fffffffffffffffffffffffffffffffffffffffffffffffffffffffffffffffff03821115614a9057614a8f614d1e565b5b828201905092915050565b6000614aa682614c0f565b9150614ab183614c0f565b92508260ff03821115614ac757614ac6614d1e565b5b828201905092915050565b6000614add82614c05565b9150614ae883614c05565b925082614af857614af7614d4d565b5b828204905092915050565b6000614b0e82614c05565b9150614b1983614c05565b9250817fffffffffffffffffffffffffffffffffffffffffffffffffffffffffffffffff0483118215151615614b5257614b51614d1e565b5b828202905092915050565b6000614b6882614c05565b9150614b7383614c05565b925082821015614b8657614b85614d1e565b5b828203905092915050565b6000614b9c82614be5565b9050919050565b60008115159050919050565b6000819050919050565b60007fffffffff0000000000000000000000000000000000000000000000000000000082169050919050565b600073ffffffffffffffffffffffffffffffffffffffff82169050919050565b6000819050919050565b600060ff82169050919050565b82818337600083830152505050565b60005b83811015614c49578082015181840152602081019050614c2e565b83811115614c58576000848401525b50505050565b60006002820490506001821680614c7657607f821691505b60208210811415614c8a57614c89614d7c565b5b50919050565b6000614c9b82614c05565b91507fffffffffffffffffffffffffffffffffffffffffffffffffffffffffffffffff821415614cce57614ccd614d1e565b5b600182019050919050565b6000819050919050565b6000819050919050565b6000614cf882614c05565b9150614d0383614c05565b925082614d1357614d12614d4d565b5b828206905092915050565b7f4e487b7100000000000000000000000000000000000000000000000000000000600052601160045260246000fd5b7f4e487b7100000000000000000000000000000000000000000000000000000000600052601260045260246000fd5b7f4e487b7100000000000000000000000000000000000000000000000000000000600052602260045260246000fd5b7f4e487b7100000000000000000000000000000000000000000000000000000000600052604160045260246000fd5b6000601f19601f8301169050919050565b614df481614b91565b8114614dff57600080fd5b50565b614e0b81614ba3565b8114614e1657600080fd5b50565b614e2281614baf565b8114614e2d57600080fd5b50565b614e3981614bb9565b8114614e4457600080fd5b50565b614e5081614c05565b8114614e5b57600080fd5b5056fe4142434445464748494a4b4c4d4e4f505152535455565758595a6162636465666768696a6b6c6d6e6f707172737475767778797a303132333435363738392b2fa2646970667358221220041b51375ececf3ede9fe194acbc4cbbb0ac8f90ccaed7c71442bf20d1715c0a64736f6c63430008000033",
  "linkReferences": {},
  "deployedLinkReferences": {}
}