{
  "address": "0x0815aC367230d2cEA9EC779Bc87a80D11164a04d",
  "abi": [
    {
      "inputs": [],
      "stateMutability": "nonpayable",
      "type": "constructor"
    },
    {
      "anonymous": false,
      "inputs": [
        {
          "indexed": true,
          "internalType": "address",
          "name": "owner",
          "type": "address"
        },
        {
          "indexed": true,
          "internalType": "address",
          "name": "approved",
          "type": "address"
        },
        {
          "indexed": true,
          "internalType": "uint256",
          "name": "tokenId",
          "type": "uint256"
        }
      ],
      "name": "Approval",
      "type": "event"
    },
    {
      "anonymous": false,
      "inputs": [
        {
          "indexed": true,
          "internalType": "address",
          "name": "owner",
          "type": "address"
        },
        {
          "indexed": true,
          "internalType": "address",
          "name": "operator",
          "type": "address"
        },
        {
          "indexed": false,
          "internalType": "bool",
          "name": "approved",
          "type": "bool"
        }
      ],
      "name": "ApprovalForAll",
      "type": "event"
    },
    {
      "anonymous": false,
      "inputs": [
        {
          "indexed": true,
          "internalType": "address",
          "name": "previousOwner",
          "type": "address"
        },
        {
          "indexed": true,
          "internalType": "address",
          "name": "newOwner",
          "type": "address"
        }
      ],
      "name": "OwnershipTransferred",
      "type": "event"
    },
    {
      "anonymous": false,
      "inputs": [
        {
          "indexed": true,
          "internalType": "address",
          "name": "from",
          "type": "address"
        },
        {
          "indexed": true,
          "internalType": "address",
          "name": "to",
          "type": "address"
        },
        {
          "indexed": true,
          "internalType": "uint256",
          "name": "tokenId",
          "type": "uint256"
        }
      ],
      "name": "Transfer",
      "type": "event"
    },
    {
      "inputs": [
        {
          "internalType": "address",
          "name": "to",
          "type": "address"
        },
        {
          "internalType": "uint256",
          "name": "tokenId",
          "type": "uint256"
        }
      ],
      "name": "approve",
      "outputs": [],
      "stateMutability": "nonpayable",
      "type": "function"
    },
    {
      "inputs": [
        {
          "internalType": "address",
          "name": "owner",
          "type": "address"
        }
      ],
      "name": "balanceOf",
      "outputs": [
        {
          "internalType": "uint256",
          "name": "",
          "type": "uint256"
        }
      ],
      "stateMutability": "view",
      "type": "function"
    },
    {
      "inputs": [
        {
          "internalType": "string",
          "name": "_imageURI",
          "type": "string"
        }
      ],
      "name": "formatTokenURI",
      "outputs": [
        {
          "internalType": "string",
          "name": "",
          "type": "string"
        }
      ],
      "stateMutability": "pure",
      "type": "function"
    },
    {
      "inputs": [
        {
          "internalType": "uint256",
          "name": "tokenId",
          "type": "uint256"
        }
      ],
      "name": "getApproved",
      "outputs": [
        {
          "internalType": "address",
          "name": "",
          "type": "address"
        }
      ],
      "stateMutability": "view",
      "type": "function"
    },
    {
      "inputs": [
        {
          "internalType": "uint256",
          "name": "_tokenId",
          "type": "uint256"
        }
      ],
      "name": "getTokenIdMinter",
      "outputs": [
        {
          "internalType": "address",
          "name": "",
          "type": "address"
        }
      ],
      "stateMutability": "view",
      "type": "function"
    },
    {
      "inputs": [
        {
          "internalType": "uint256",
          "name": "_tokenId",
          "type": "uint256"
        }
      ],
      "name": "getTokenIdTransfers",
      "outputs": [
        {
          "internalType": "uint256",
          "name": "",
          "type": "uint256"
        }
      ],
      "stateMutability": "view",
      "type": "function"
    },
    {
      "inputs": [
        {
          "internalType": "address",
          "name": "owner",
          "type": "address"
        },
        {
          "internalType": "address",
          "name": "operator",
          "type": "address"
        }
      ],
      "name": "isApprovedForAll",
      "outputs": [
        {
          "internalType": "bool",
          "name": "",
          "type": "bool"
        }
      ],
      "stateMutability": "view",
      "type": "function"
    },
    {
      "inputs": [],
      "name": "maxPlayers",
      "outputs": [
        {
          "internalType": "uint256",
          "name": "",
          "type": "uint256"
        }
      ],
      "stateMutability": "view",
      "type": "function"
    },
    {
      "inputs": [],
      "name": "maxTokens",
      "outputs": [
        {
          "internalType": "uint256",
          "name": "",
          "type": "uint256"
        }
      ],
      "stateMutability": "view",
      "type": "function"
    },
    {
      "inputs": [],
      "name": "mintNFT",
      "outputs": [],
      "stateMutability": "payable",
      "type": "function"
    },
    {
      "inputs": [],
      "name": "name",
      "outputs": [
        {
          "internalType": "string",
          "name": "",
          "type": "string"
        }
      ],
      "stateMutability": "view",
      "type": "function"
    },
    {
      "inputs": [],
      "name": "owner",
      "outputs": [
        {
          "internalType": "address",
          "name": "",
          "type": "address"
        }
      ],
      "stateMutability": "view",
      "type": "function"
    },
    {
      "inputs": [
        {
          "internalType": "uint256",
          "name": "tokenId",
          "type": "uint256"
        }
      ],
      "name": "ownerOf",
      "outputs": [
        {
          "internalType": "address",
          "name": "",
          "type": "address"
        }
      ],
      "stateMutability": "view",
      "type": "function"
    },
    {
      "inputs": [],
      "name": "renounceOwnership",
      "outputs": [],
      "stateMutability": "nonpayable",
      "type": "function"
    },
    {
      "inputs": [
        {
          "internalType": "address",
          "name": "from",
          "type": "address"
        },
        {
          "internalType": "address",
          "name": "to",
          "type": "address"
        },
        {
          "internalType": "uint256",
          "name": "tokenId",
          "type": "uint256"
        }
      ],
      "name": "safeTransferFrom",
      "outputs": [],
      "stateMutability": "nonpayable",
      "type": "function"
    },
    {
      "inputs": [
        {
          "internalType": "address",
          "name": "from",
          "type": "address"
        },
        {
          "internalType": "address",
          "name": "to",
          "type": "address"
        },
        {
          "internalType": "uint256",
          "name": "tokenId",
          "type": "uint256"
        },
        {
          "internalType": "bytes",
          "name": "_data",
          "type": "bytes"
        }
      ],
      "name": "safeTransferFrom",
      "outputs": [],
      "stateMutability": "nonpayable",
      "type": "function"
    },
    {
      "inputs": [
        {
          "internalType": "address",
          "name": "operator",
          "type": "address"
        },
        {
          "internalType": "bool",
          "name": "approved",
          "type": "bool"
        }
      ],
      "name": "setApprovalForAll",
      "outputs": [],
      "stateMutability": "nonpayable",
      "type": "function"
    },
    {
      "inputs": [
        {
          "internalType": "bytes4",
          "name": "interfaceId",
          "type": "bytes4"
        }
      ],
      "name": "supportsInterface",
      "outputs": [
        {
          "internalType": "bool",
          "name": "",
          "type": "bool"
        }
      ],
      "stateMutability": "view",
      "type": "function"
    },
    {
      "inputs": [
        {
          "internalType": "uint256",
          "name": "_tokenId",
          "type": "uint256"
        }
      ],
      "name": "svg",
      "outputs": [
        {
          "internalType": "string",
          "name": "",
          "type": "string"
        }
      ],
      "stateMutability": "view",
      "type": "function"
    },
    {
      "inputs": [
        {
          "internalType": "string",
          "name": "_svg",
          "type": "string"
        }
      ],
      "name": "svgToImageURI",
      "outputs": [
        {
          "internalType": "string",
          "name": "",
          "type": "string"
        }
      ],
      "stateMutability": "pure",
      "type": "function"
    },
    {
      "inputs": [],
      "name": "symbol",
      "outputs": [
        {
          "internalType": "string",
          "name": "",
          "type": "string"
        }
      ],
      "stateMutability": "view",
      "type": "function"
    },
    {
      "inputs": [],
      "name": "tokenCount",
      "outputs": [
        {
          "internalType": "uint256",
          "name": "",
          "type": "uint256"
        }
      ],
      "stateMutability": "view",
      "type": "function"
    },
    {
      "inputs": [],
      "name": "tokenId",
      "outputs": [
        {
          "internalType": "uint256",
          "name": "",
          "type": "uint256"
        }
      ],
      "stateMutability": "view",
      "type": "function"
    },
    {
      "inputs": [
        {
          "internalType": "uint256",
          "name": "tokenId",
          "type": "uint256"
        }
      ],
      "name": "tokenURI",
      "outputs": [
        {
          "internalType": "string",
          "name": "",
          "type": "string"
        }
      ],
      "stateMutability": "view",
      "type": "function"
    },
    {
      "inputs": [
        {
          "internalType": "address",
          "name": "from",
          "type": "address"
        },
        {
          "internalType": "address",
          "name": "to",
          "type": "address"
        },
        {
          "internalType": "uint256",
          "name": "tokenId",
          "type": "uint256"
        }
      ],
      "name": "transferFrom",
      "outputs": [],
      "stateMutability": "nonpayable",
      "type": "function"
    },
    {
      "inputs": [
        {
          "internalType": "address",
          "name": "friend",
          "type": "address"
        },
        {
          "internalType": "uint256",
          "name": "_tokenId",
          "type": "uint256"
        }
      ],
      "name": "transferNFT",
      "outputs": [],
      "stateMutability": "nonpayable",
      "type": "function"
    },
    {
      "inputs": [
        {
          "internalType": "address",
          "name": "newOwner",
          "type": "address"
        }
      ],
      "name": "transferOwnership",
      "outputs": [],
      "stateMutability": "nonpayable",
      "type": "function"
    },
    {
      "inputs": [],
      "name": "withdrawAll",
      "outputs": [],
      "stateMutability": "nonpayable",
      "type": "function"
    }
  ],
  "transactionHash": "0x54dd3f1715d0796a048dc1b8c5ae1fc91fb401568ff26e1172ac4070a6bc0ac4",
  "args": [],
  "solcInputHash": "36d739fa32ccc6e85a6a4882222d20ed",
  "bytecode": "0x608060405260006009556000600a55612710600b55600a600c553480156200002657600080fd5b506040518060400160405280600881526020017f4e46542d47616d650000000000000000000000000000000000000000000000008152506040518060400160405280600481526020017f4e465447000000000000000000000000000000000000000000000000000000008152508160009080519060200190620000ab929190620001c3565b508060019080519060200190620000c4929190620001c3565b5050506001600781905550620000ef620000e3620000f560201b60201c565b620000fd60201b60201c565b620002d8565b600033905090565b6000600860009054906101000a900473ffffffffffffffffffffffffffffffffffffffff16905081600860006101000a81548173ffffffffffffffffffffffffffffffffffffffff021916908373ffffffffffffffffffffffffffffffffffffffff1602179055508173ffffffffffffffffffffffffffffffffffffffff168173ffffffffffffffffffffffffffffffffffffffff167f8be0079c531659141344cd1fd0a4f28419497f9722a3daafe3b4186f6b6457e060405160405180910390a35050565b828054620001d19062000273565b90600052602060002090601f016020900481019282620001f5576000855562000241565b82601f106200021057805160ff191683800117855562000241565b8280016001018555821562000241579182015b828111156200024057825182559160200191906001019062000223565b5b50905062000250919062000254565b5090565b5b808211156200026f57600081600090555060010162000255565b5090565b600060028204905060018216806200028c57607f821691505b60208210811415620002a357620002a2620002a9565b5b50919050565b7f4e487b7100000000000000000000000000000000000000000000000000000000600052602260045260246000fd5b6141e780620002e86000396000f3fe6080604052600436106101b75760003560e01c8063715018a6116100ec578063a22cb4651161008a578063df8c92a011610064578063df8c92a014610611578063e83157421461064e578063e985e9c514610679578063f2fde38b146106b6576101b7565b8063a22cb46514610582578063b88d4fde146105ab578063c87b56dd146105d4576101b7565b80638da5cb5b116100c65780638da5cb5b146104d857806394ab67fe1461050357806395d89b411461052c5780639f181b5e14610557576101b7565b8063715018a61461046d57806371aee19314610484578063853828b6146104c1576101b7565b806330d871c61161015957806344b285db1161013357806344b285db1461038b5780634c2412a2146103c85780636352211e146103f357806370a0823114610430576101b7565b806330d871c6146102e8578063317915241461032557806342842e0e14610362576101b7565b8063095ea7b311610195578063095ea7b31461026157806314f710fe1461028a57806317d70f7c1461029457806323b872dd146102bf576101b7565b806301ffc9a7146101bc57806306fdde03146101f9578063081812fc14610224575b600080fd5b3480156101c857600080fd5b506101e360048036038101906101de9190612a4d565b6106df565b6040516101f091906139b0565b60405180910390f35b34801561020557600080fd5b5061020e6107c1565b60405161021b91906139cb565b60405180910390f35b34801561023057600080fd5b5061024b60048036038101906102469190612ae0565b610853565b6040516102589190613949565b60405180910390f35b34801561026d57600080fd5b5061028860048036038101906102839190612a11565b6108d8565b005b6102926109f0565b005b3480156102a057600080fd5b506102a9610b0e565b6040516102b69190613c6d565b60405180910390f35b3480156102cb57600080fd5b506102e660048036038101906102e1919061290b565b610b14565b005b3480156102f457600080fd5b5061030f600480360381019061030a9190612a9f565b610b74565b60405161031c91906139cb565b60405180910390f35b34801561033157600080fd5b5061034c60048036038101906103479190612ae0565b610c07565b6040516103599190613c6d565b60405180910390f35b34801561036e57600080fd5b506103896004803603810190610384919061290b565b610c24565b005b34801561039757600080fd5b506103b260048036038101906103ad9190612ae0565b610c44565b6040516103bf91906139cb565b60405180910390f35b3480156103d457600080fd5b506103dd610cd7565b6040516103ea9190613c6d565b60405180910390f35b3480156103ff57600080fd5b5061041a60048036038101906104159190612ae0565b610cdd565b6040516104279190613949565b60405180910390f35b34801561043c57600080fd5b50610457600480360381019061045291906128a6565b610d8f565b6040516104649190613c6d565b60405180910390f35b34801561047957600080fd5b50610482610e47565b005b34801561049057600080fd5b506104ab60048036038101906104a69190612a9f565b610ecf565b6040516104b891906139cb565b60405180910390f35b3480156104cd57600080fd5b506104d6610f1f565b005b3480156104e457600080fd5b506104ed610fdb565b6040516104fa9190613949565b60405180910390f35b34801561050f57600080fd5b5061052a60048036038101906105259190612a11565b611005565b005b34801561053857600080fd5b506105416110f2565b60405161054e91906139cb565b60405180910390f35b34801561056357600080fd5b5061056c611184565b6040516105799190613c6d565b60405180910390f35b34801561058e57600080fd5b506105a960048036038101906105a491906129d5565b61118a565b005b3480156105b757600080fd5b506105d260048036038101906105cd919061295a565b61130b565b005b3480156105e057600080fd5b506105fb60048036038101906105f69190612ae0565b61136d565b60405161060891906139cb565b60405180910390f35b34801561061d57600080fd5b5061063860048036038101906106339190612ae0565b6114bf565b6040516106459190613949565b60405180910390f35b34801561065a57600080fd5b506106636114fc565b6040516106709190613c6d565b60405180910390f35b34801561068557600080fd5b506106a0600480360381019061069b91906128cf565b611502565b6040516106ad91906139b0565b60405180910390f35b3480156106c257600080fd5b506106dd60048036038101906106d891906128a6565b611596565b005b60007f80ac58cd000000000000000000000000000000000000000000000000000000007bffffffffffffffffffffffffffffffffffffffffffffffffffffffff1916827bffffffffffffffffffffffffffffffffffffffffffffffffffffffff191614806107aa57507f5b5e139f000000000000000000000000000000000000000000000000000000007bffffffffffffffffffffffffffffffffffffffffffffffffffffffff1916827bffffffffffffffffffffffffffffffffffffffffffffffffffffffff1916145b806107ba57506107b98261168e565b5b9050919050565b6060600080546107d090613f6b565b80601f01602080910402602001604051908101604052809291908181526020018280546107fc90613f6b565b80156108495780601f1061081e57610100808354040283529160200191610849565b820191906000526020600020905b81548152906001019060200180831161082c57829003601f168201915b5050505050905090565b600061085e826116f8565b61089d576040517f08c379a000000000000000000000000000000000000000000000000000000000815260040161089490613b8d565b60405180910390fd5b6004600083815260200190815260200160002060009054906101000a900473ffffffffffffffffffffffffffffffffffffffff169050919050565b60006108e382610cdd565b90508073ffffffffffffffffffffffffffffffffffffffff168373ffffffffffffffffffffffffffffffffffffffff161415610954576040517f08c379a000000000000000000000000000000000000000000000000000000000815260040161094b90613c0d565b60405180910390fd5b8073ffffffffffffffffffffffffffffffffffffffff16610973611764565b73ffffffffffffffffffffffffffffffffffffffff1614806109a257506109a18161099c611764565b611502565b5b6109e1576040517f08c379a00000000000000000000000000000000000000000000000000000000081526004016109d890613aad565b60405180910390fd5b6109eb838361176c565b505050565b600b5460095410610a36576040517f08c379a0000000000000000000000000000000000000000000000000000000008152600401610a2d90613b6d565b60405180910390fd5b600160096000828254610a499190613d5c565b92505081905550600954600a81905550610a6533600a54611825565b6000600e6000600a5481526020019081526020016000208190555033600d6000600a54815260200190815260200160002060006101000a81548173ffffffffffffffffffffffffffffffffffffffff021916908373ffffffffffffffffffffffffffffffffffffffff1602179055506000610ae1600a54610c44565b90506000610aee82610b74565b90506000610afb82610ecf565b9050610b09600a5482611843565b505050565b600a5481565b610b25610b1f611764565b826118b7565b610b64576040517f08c379a0000000000000000000000000000000000000000000000000000000008152600401610b5b90613c2d565b60405180910390fd5b610b6f838383611995565b505050565b606060006040518060400160405280601a81526020017f646174613a696d6167652f7376672b786d6c3b6261736536342c00000000000081525090506000610bda84604051602001610bc69190613800565b604051602081830303815290604052611bf1565b90508181604051602001610bef929190613817565b60405160208183030381529060405292505050919050565b6000600e6000838152602001908152602001600020549050919050565b610c3f8383836040518060200160405280600081525061130b565b505050565b60606000610c5183611d90565b600d600085815260200190815260200160002060009054906101000a900473ffffffffffffffffffffffffffffffffffffffff16610ca1600e600087815260200190815260200160002054611d90565b610caa86610cdd565b604051602001610cbd949392919061387e565b604051602081830303815290604052905080915050919050565b600c5481565b6000806002600084815260200190815260200160002060009054906101000a900473ffffffffffffffffffffffffffffffffffffffff169050600073ffffffffffffffffffffffffffffffffffffffff168173ffffffffffffffffffffffffffffffffffffffff161415610d86576040517f08c379a0000000000000000000000000000000000000000000000000000000008152600401610d7d90613aed565b60405180910390fd5b80915050919050565b60008073ffffffffffffffffffffffffffffffffffffffff168273ffffffffffffffffffffffffffffffffffffffff161415610e00576040517f08c379a0000000000000000000000000000000000000000000000000000000008152600401610df790613acd565b60405180910390fd5b600360008373ffffffffffffffffffffffffffffffffffffffff1673ffffffffffffffffffffffffffffffffffffffff168152602001908152602001600020549050919050565b610e4f611764565b73ffffffffffffffffffffffffffffffffffffffff16610e6d610fdb565b73ffffffffffffffffffffffffffffffffffffffff1614610ec3576040517f08c379a0000000000000000000000000000000000000000000000000000000008152600401610eba90613bad565b60405180910390fd5b610ecd6000611f65565b565b6060610ef982604051602001610ee5919061383b565b604051602081830303815290604052611bf1565b604051602001610f099190613927565b6040516020818303038152906040529050919050565b610f27611764565b73ffffffffffffffffffffffffffffffffffffffff16610f45610fdb565b73ffffffffffffffffffffffffffffffffffffffff1614610f9b576040517f08c379a0000000000000000000000000000000000000000000000000000000008152600401610f9290613bad565b60405180910390fd5b3373ffffffffffffffffffffffffffffffffffffffff166108fc479081150290604051600060405180830381858888f19350505050610fd957600080fd5b565b6000600860009054906101000a900473ffffffffffffffffffffffffffffffffffffffff16905090565b8173ffffffffffffffffffffffffffffffffffffffff163373ffffffffffffffffffffffffffffffffffffffff161415611074576040517f08c379a000000000000000000000000000000000000000000000000000000000815260040161106b90613c4d565b60405180910390fd5b61107f338383611995565b6001600e60008381526020019081526020016000205461109f9190613d5c565b600e60008381526020019081526020016000208190555060006110c3600a54610c44565b905060006110d082610b74565b905060006110dd82610ecf565b90506110eb600a5482611843565b5050505050565b60606001805461110190613f6b565b80601f016020809104026020016040519081016040528092919081815260200182805461112d90613f6b565b801561117a5780601f1061114f5761010080835404028352916020019161117a565b820191906000526020600020905b81548152906001019060200180831161115d57829003601f168201915b5050505050905090565b60095481565b611192611764565b73ffffffffffffffffffffffffffffffffffffffff168273ffffffffffffffffffffffffffffffffffffffff161415611200576040517f08c379a00000000000000000000000000000000000000000000000000000000081526004016111f790613a6d565b60405180910390fd5b806005600061120d611764565b73ffffffffffffffffffffffffffffffffffffffff1673ffffffffffffffffffffffffffffffffffffffff16815260200190815260200160002060008473ffffffffffffffffffffffffffffffffffffffff1673ffffffffffffffffffffffffffffffffffffffff16815260200190815260200160002060006101000a81548160ff0219169083151502179055508173ffffffffffffffffffffffffffffffffffffffff166112ba611764565b73ffffffffffffffffffffffffffffffffffffffff167f17307eab39ab6107e8899845ad3d59bd9653f200f220920489ca2b5937696c31836040516112ff91906139b0565b60405180910390a35050565b61131c611316611764565b836118b7565b61135b576040517f08c379a000000000000000000000000000000000000000000000000000000000815260040161135290613c2d565b60405180910390fd5b6113678484848461202b565b50505050565b6060611378826116f8565b6113b7576040517f08c379a00000000000000000000000000000000000000000000000000000000081526004016113ae90613b4d565b60405180910390fd5b60006006600084815260200190815260200160002080546113d790613f6b565b80601f016020809104026020016040519081016040528092919081815260200182805461140390613f6b565b80156114505780601f1061142557610100808354040283529160200191611450565b820191906000526020600020905b81548152906001019060200180831161143357829003601f168201915b505050505090506000611461612087565b90506000815114156114775781925050506114ba565b6000825111156114ac578082604051602001611494929190613817565b604051602081830303815290604052925050506114ba565b6114b58461209e565b925050505b919050565b6000600d600083815260200190815260200160002060009054906101000a900473ffffffffffffffffffffffffffffffffffffffff169050919050565b600b5481565b6000600560008473ffffffffffffffffffffffffffffffffffffffff1673ffffffffffffffffffffffffffffffffffffffff16815260200190815260200160002060008373ffffffffffffffffffffffffffffffffffffffff1673ffffffffffffffffffffffffffffffffffffffff16815260200190815260200160002060009054906101000a900460ff16905092915050565b61159e611764565b73ffffffffffffffffffffffffffffffffffffffff166115bc610fdb565b73ffffffffffffffffffffffffffffffffffffffff1614611612576040517f08c379a000000000000000000000000000000000000000000000000000000000815260040161160990613bad565b60405180910390fd5b600073ffffffffffffffffffffffffffffffffffffffff168173ffffffffffffffffffffffffffffffffffffffff161415611682576040517f08c379a000000000000000000000000000000000000000000000000000000000815260040161167990613a0d565b60405180910390fd5b61168b81611f65565b50565b60007f01ffc9a7000000000000000000000000000000000000000000000000000000007bffffffffffffffffffffffffffffffffffffffffffffffffffffffff1916827bffffffffffffffffffffffffffffffffffffffffffffffffffffffff1916149050919050565b60008073ffffffffffffffffffffffffffffffffffffffff166002600084815260200190815260200160002060009054906101000a900473ffffffffffffffffffffffffffffffffffffffff1673ffffffffffffffffffffffffffffffffffffffff1614159050919050565b600033905090565b816004600083815260200190815260200160002060006101000a81548173ffffffffffffffffffffffffffffffffffffffff021916908373ffffffffffffffffffffffffffffffffffffffff160217905550808273ffffffffffffffffffffffffffffffffffffffff166117df83610cdd565b73ffffffffffffffffffffffffffffffffffffffff167f8c5be1e5ebec7d5bd14f71427d1e84f3dd0314c0f7b2291e5b200ac8c7c3b92560405160405180910390a45050565b61183f828260405180602001604052806000815250612145565b5050565b61184c826116f8565b61188b576040517f08c379a000000000000000000000000000000000000000000000000000000000815260040161188290613b0d565b60405180910390fd5b806006600084815260200190815260200160002090805190602001906118b29291906126ca565b505050565b60006118c2826116f8565b611901576040517f08c379a00000000000000000000000000000000000000000000000000000000081526004016118f890613a8d565b60405180910390fd5b600061190c83610cdd565b90508073ffffffffffffffffffffffffffffffffffffffff168473ffffffffffffffffffffffffffffffffffffffff16148061197b57508373ffffffffffffffffffffffffffffffffffffffff1661196384610853565b73ffffffffffffffffffffffffffffffffffffffff16145b8061198c575061198b8185611502565b5b91505092915050565b8273ffffffffffffffffffffffffffffffffffffffff166119b582610cdd565b73ffffffffffffffffffffffffffffffffffffffff1614611a0b576040517f08c379a0000000000000000000000000000000000000000000000000000000008152600401611a0290613bcd565b60405180910390fd5b600073ffffffffffffffffffffffffffffffffffffffff168273ffffffffffffffffffffffffffffffffffffffff161415611a7b576040517f08c379a0000000000000000000000000000000000000000000000000000000008152600401611a7290613a4d565b60405180910390fd5b611a868383836121a0565b611a9160008261176c565b6001600360008573ffffffffffffffffffffffffffffffffffffffff1673ffffffffffffffffffffffffffffffffffffffff1681526020019081526020016000206000828254611ae19190613e74565b925050819055506001600360008473ffffffffffffffffffffffffffffffffffffffff1673ffffffffffffffffffffffffffffffffffffffff1681526020019081526020016000206000828254611b389190613d5c565b92505081905550816002600083815260200190815260200160002060006101000a81548173ffffffffffffffffffffffffffffffffffffffff021916908373ffffffffffffffffffffffffffffffffffffffff160217905550808273ffffffffffffffffffffffffffffffffffffffff168473ffffffffffffffffffffffffffffffffffffffff167fddf252ad1be2c89b69c2b068fc378daa952ba7f163c4a11628f55a4df523b3ef60405160405180910390a4505050565b6060600082511415611c1457604051806020016040528060008152509050611d8b565b60006040518060600160405280604081526020016141726040913990506000600360028551611c439190613d5c565b611c4d9190613de9565b6004611c599190613e1a565b90506000602082611c6a9190613d5c565b67ffffffffffffffff811115611ca9577f4e487b7100000000000000000000000000000000000000000000000000000000600052604160045260246000fd5b6040519080825280601f01601f191660200182016040528015611cdb5781602001600182028036833780820191505090505b509050818152600183018586518101602084015b81831015611d4a576003830192508251603f8160121c168501518253600182019150603f81600c1c168501518253600182019150603f8160061c168501518253600182019150603f8116850151825360018201915050611cef565b600389510660018114611d645760028114611d7457611d7f565b613d3d60f01b6002830352611d7f565b603d60f81b60018303525b50505050508093505050505b919050565b60606000821415611dd8576040518060400160405280600181526020017f30000000000000000000000000000000000000000000000000000000000000008152509050611f60565b600082905060005b60008214611e0a578080611df390613f9d565b915050600a82611e039190613de9565b9150611de0565b60008167ffffffffffffffff811115611e4c577f4e487b7100000000000000000000000000000000000000000000000000000000600052604160045260246000fd5b6040519080825280601f01601f191660200182016040528015611e7e5781602001600182028036833780820191505090505b50905060008290505b60008614611f5857600181611e9c9190613e74565b90506000600a8088611eae9190613de9565b611eb89190613e1a565b87611ec39190613e74565b6030611ecf9190613db2565b905060008160f81b905080848481518110611f13577f4e487b7100000000000000000000000000000000000000000000000000000000600052603260045260246000fd5b60200101907effffffffffffffffffffffffffffffffffffffffffffffffffffffffffffff1916908160001a905350600a88611f4f9190613de9565b97505050611e87565b819450505050505b919050565b6000600860009054906101000a900473ffffffffffffffffffffffffffffffffffffffff16905081600860006101000a81548173ffffffffffffffffffffffffffffffffffffffff021916908373ffffffffffffffffffffffffffffffffffffffff1602179055508173ffffffffffffffffffffffffffffffffffffffff168173ffffffffffffffffffffffffffffffffffffffff167f8be0079c531659141344cd1fd0a4f28419497f9722a3daafe3b4186f6b6457e060405160405180910390a35050565b612036848484611995565b612042848484846121a5565b612081576040517f08c379a0000000000000000000000000000000000000000000000000000000008152600401612078906139ed565b60405180910390fd5b50505050565b606060405180602001604052806000815250905090565b60606120a9826116f8565b6120e8576040517f08c379a00000000000000000000000000000000000000000000000000000000081526004016120df90613bed565b60405180910390fd5b60006120f2612087565b90506000815111612112576040518060200160405280600081525061213d565b8061211c8461233c565b60405160200161212d929190613817565b6040516020818303038152906040525b915050919050565b61214f83836124e9565b61215c60008484846121a5565b61219b576040517f08c379a0000000000000000000000000000000000000000000000000000000008152600401612192906139ed565b60405180910390fd5b505050565b505050565b60006121c68473ffffffffffffffffffffffffffffffffffffffff166126b7565b1561232f578373ffffffffffffffffffffffffffffffffffffffff1663150b7a026121ef611764565b8786866040518563ffffffff1660e01b81526004016122119493929190613964565b602060405180830381600087803b15801561222b57600080fd5b505af192505050801561225c57506040513d601f19601f820116820180604052508101906122599190612a76565b60015b6122df573d806000811461228c576040519150601f19603f3d011682016040523d82523d6000602084013e612291565b606091505b506000815114156122d7576040517f08c379a00000000000000000000000000000000000000000000000000000000081526004016122ce906139ed565b60405180910390fd5b805181602001fd5b63150b7a0260e01b7bffffffffffffffffffffffffffffffffffffffffffffffffffffffff1916817bffffffffffffffffffffffffffffffffffffffffffffffffffffffff191614915050612334565b600190505b949350505050565b60606000821415612384576040518060400160405280600181526020017f300000000000000000000000000000000000000000000000000000000000000081525090506124e4565b600082905060005b600082146123b657808061239f90613f9d565b915050600a826123af9190613de9565b915061238c565b60008167ffffffffffffffff8111156123f8577f4e487b7100000000000000000000000000000000000000000000000000000000600052604160045260246000fd5b6040519080825280601f01601f19166020018201604052801561242a5781602001600182028036833780820191505090505b5090505b600085146124dd576001826124439190613e74565b9150600a85612452919061400a565b603061245e9190613d5c565b60f81b81838151811061249a577f4e487b7100000000000000000000000000000000000000000000000000000000600052603260045260246000fd5b60200101907effffffffffffffffffffffffffffffffffffffffffffffffffffffffffffff1916908160001a905350600a856124d69190613de9565b945061242e565b8093505050505b919050565b600073ffffffffffffffffffffffffffffffffffffffff168273ffffffffffffffffffffffffffffffffffffffff161415612559576040517f08c379a000000000000000000000000000000000000000000000000000000000815260040161255090613b2d565b60405180910390fd5b612562816116f8565b156125a2576040517f08c379a000000000000000000000000000000000000000000000000000000000815260040161259990613a2d565b60405180910390fd5b6125ae600083836121a0565b6001600360008473ffffffffffffffffffffffffffffffffffffffff1673ffffffffffffffffffffffffffffffffffffffff16815260200190815260200160002060008282546125fe9190613d5c565b92505081905550816002600083815260200190815260200160002060006101000a81548173ffffffffffffffffffffffffffffffffffffffff021916908373ffffffffffffffffffffffffffffffffffffffff160217905550808273ffffffffffffffffffffffffffffffffffffffff16600073ffffffffffffffffffffffffffffffffffffffff167fddf252ad1be2c89b69c2b068fc378daa952ba7f163c4a11628f55a4df523b3ef60405160405180910390a45050565b600080823b905060008111915050919050565b8280546126d690613f6b565b90600052602060002090601f0160209004810192826126f8576000855561273f565b82601f1061271157805160ff191683800117855561273f565b8280016001018555821561273f579182015b8281111561273e578251825591602001919060010190612723565b5b50905061274c9190612750565b5090565b5b80821115612769576000816000905550600101612751565b5090565b600061278061277b84613cb9565b613c88565b90508281526020810184848401111561279857600080fd5b6127a3848285613f29565b509392505050565b60006127be6127b984613ce9565b613c88565b9050828152602081018484840111156127d657600080fd5b6127e1848285613f29565b509392505050565b6000813590506127f881614115565b92915050565b60008135905061280d8161412c565b92915050565b60008135905061282281614143565b92915050565b60008151905061283781614143565b92915050565b600082601f83011261284e57600080fd5b813561285e84826020860161276d565b91505092915050565b600082601f83011261287857600080fd5b81356128888482602086016127ab565b91505092915050565b6000813590506128a08161415a565b92915050565b6000602082840312156128b857600080fd5b60006128c6848285016127e9565b91505092915050565b600080604083850312156128e257600080fd5b60006128f0858286016127e9565b9250506020612901858286016127e9565b9150509250929050565b60008060006060848603121561292057600080fd5b600061292e868287016127e9565b935050602061293f868287016127e9565b925050604061295086828701612891565b9150509250925092565b6000806000806080858703121561297057600080fd5b600061297e878288016127e9565b945050602061298f878288016127e9565b93505060406129a087828801612891565b925050606085013567ffffffffffffffff8111156129bd57600080fd5b6129c98782880161283d565b91505092959194509250565b600080604083850312156129e857600080fd5b60006129f6858286016127e9565b9250506020612a07858286016127fe565b9150509250929050565b60008060408385031215612a2457600080fd5b6000612a32858286016127e9565b9250506020612a4385828601612891565b9150509250929050565b600060208284031215612a5f57600080fd5b6000612a6d84828501612813565b91505092915050565b600060208284031215612a8857600080fd5b6000612a9684828501612828565b91505092915050565b600060208284031215612ab157600080fd5b600082013567ffffffffffffffff811115612acb57600080fd5b612ad784828501612867565b91505092915050565b600060208284031215612af257600080fd5b6000612b0084828501612891565b91505092915050565b612b1281613ea8565b82525050565b612b29612b2482613ea8565b613fe6565b82525050565b612b3881613eba565b82525050565b6000612b4982613d19565b612b538185613d2f565b9350612b63818560208601613f38565b612b6c816140f7565b840191505092915050565b6000612b8282613d24565b612b8c8185613d40565b9350612b9c818560208601613f38565b612ba5816140f7565b840191505092915050565b6000612bbb82613d24565b612bc58185613d51565b9350612bd5818560208601613f38565b80840191505092915050565b6000612bee606483613d51565b91507f3c7465787420783d223530252220793d2232302522207374796c653d2266696c60008301527f6c3a77686974653b646f6d696e616e742d626173656c696e653d226d6964646c60208301527f652220746578742d616e63686f723d226d6964646c6522223e546f6b656e204960408301527f64203d20000000000000000000000000000000000000000000000000000000006060830152606482019050919050565b6000612ca0600983613d51565b91507f7b226e616d65223a2200000000000000000000000000000000000000000000006000830152600982019050919050565b6000612ce0605b83613d51565b91507f222c20226465736372697074696f6e223a22416e2064796e616d6963204e465460008301527f2067616d6520776869636820697320707572656c79206f6e2d636861696e222c60208301527f202261747472696275746573223a22222c2022696d616765223a2200000000006040830152605b82019050919050565b6000612d6c603283613d40565b91507f4552433732313a207472616e7366657220746f206e6f6e20455243373231526560008301527f63656976657220696d706c656d656e74657200000000000000000000000000006020830152604082019050919050565b6000612dd2601e83613d51565b91507f3c7376672077696474683d2235303022206865696768743d22353030223e00006000830152601e82019050919050565b6000612e12600883613d51565b91507f4e46542047616d650000000000000000000000000000000000000000000000006000830152600882019050919050565b6000612e52602683613d40565b91507f4f776e61626c653a206e6577206f776e657220697320746865207a65726f206160008301527f64647265737300000000000000000000000000000000000000000000000000006020830152604082019050919050565b6000612eb8601c83613d40565b91507f4552433732313a20746f6b656e20616c7265616479206d696e746564000000006000830152602082019050919050565b6000612ef8600883613d51565b91507f3c2f747370616e3e0000000000000000000000000000000000000000000000006000830152600882019050919050565b6000612f38602483613d40565b91507f4552433732313a207472616e7366657220746f20746865207a65726f2061646460008301527f72657373000000000000000000000000000000000000000000000000000000006020830152604082019050919050565b6000612f9e601983613d40565b91507f4552433732313a20617070726f766520746f2063616c6c6572000000000000006000830152602082019050919050565b6000612fde602c83613d40565b91507f4552433732313a206f70657261746f7220717565727920666f72206e6f6e657860008301527f697374656e7420746f6b656e00000000000000000000000000000000000000006020830152604082019050919050565b6000613044603883613d40565b91507f4552433732313a20617070726f76652063616c6c6572206973206e6f74206f7760008301527f6e6572206e6f7220617070726f76656420666f7220616c6c00000000000000006020830152604082019050919050565b60006130aa602a83613d40565b91507f4552433732313a2062616c616e636520717565727920666f7220746865207a6560008301527f726f2061646472657373000000000000000000000000000000000000000000006020830152604082019050919050565b6000613110602983613d40565b91507f4552433732313a206f776e657220717565727920666f72206e6f6e657869737460008301527f656e7420746f6b656e00000000000000000000000000000000000000000000006020830152604082019050919050565b6000613176602e83613d40565b91507f45524337323155524953746f726167653a2055524920736574206f66206e6f6e60008301527f6578697374656e7420746f6b656e0000000000000000000000000000000000006020830152604082019050919050565b60006131dc600283613d51565b91507f227d0000000000000000000000000000000000000000000000000000000000006000830152600282019050919050565b600061321c602083613d40565b91507f4552433732313a206d696e7420746f20746865207a65726f20616464726573736000830152602082019050919050565b600061325c602783613d51565b91507f3c747370616e20783d223530252220793d2238302522203e43757272656e742060008301527f4f776e6572203d000000000000000000000000000000000000000000000000006020830152602782019050919050565b60006132c2603183613d40565b91507f45524337323155524953746f726167653a2055524920717565727920666f722060008301527f6e6f6e6578697374656e7420746f6b656e0000000000000000000000000000006020830152604082019050919050565b6000613328601183613d40565b91507f414c4c20544f4b454e53204d494e5445440000000000000000000000000000006000830152602082019050919050565b6000613368602c83613d40565b91507f4552433732313a20617070726f76656420717565727920666f72206e6f6e657860008301527f697374656e7420746f6b656e00000000000000000000000000000000000000006020830152604082019050919050565b60006133ce601783613d51565b91507f204d696e74656420546865204e46543c2f747370616e3e0000000000000000006000830152601782019050919050565b600061340e602083613d40565b91507f4f776e61626c653a2063616c6c6572206973206e6f7420746865206f776e65726000830152602082019050919050565b600061344e602983613d40565b91507f4552433732313a207472616e73666572206f6620746f6b656e2074686174206960008301527f73206e6f74206f776e00000000000000000000000000000000000000000000006020830152604082019050919050565b60006134b4602f83613d40565b91507f4552433732314d657461646174613a2055524920717565727920666f72206e6f60008301527f6e6578697374656e7420746f6b656e00000000000000000000000000000000006020830152604082019050919050565b600061351a602183613d40565b91507f4552433732313a20617070726f76616c20746f2063757272656e74206f776e6560008301527f72000000000000000000000000000000000000000000000000000000000000006020830152604082019050919050565b6000613580601d83613d51565b91507f646174613a6170706c69636174696f6e2f6a736f6e3b6261736536342c0000006000830152601d82019050919050565b60006135c0603183613d40565b91507f4552433732313a207472616e736665722063616c6c6572206973206e6f74206f60008301527f776e6572206e6f7220617070726f7665640000000000000000000000000000006020830152604082019050919050565b6000613626602883613d51565b91507f3c747370616e20783d223530252220793d22363025223e5472616e736665727360008301527f20446f6e65203d200000000000000000000000000000000000000000000000006020830152602882019050919050565b600061368c601783613d40565b91507f63616e6e6f74206769667420746f20796f757273656c660000000000000000006000830152602082019050919050565b60006136cc601783613d51565b91507f3c747370616e20783d223530252220793d22343025223e0000000000000000006000830152601782019050919050565b600061370c607083613d51565b91507f3c726563742077696474683d2235303022206865696768743d2235303022207360008301527f74796c653d2266696c6c3a626c61636b3b7374726f6b653a70696e6b3b73747260208301527f6f6b652d77696474683a31303b66696c6c2d6f7061636974793a313b7374726f60408301527f6b652d6f7061636974793a3122202f3e000000000000000000000000000000006060830152607082019050919050565b60006137be601583613d51565b91507f3c2f747370616e3e3c2f746578743e3c2f7376673e00000000000000000000006000830152601582019050919050565b6137fa81613f12565b82525050565b600061380c8284612bb0565b915081905092915050565b60006138238285612bb0565b915061382f8284612bb0565b91508190509392505050565b600061384682612c93565b915061385182612e05565b915061385c82612cd3565b91506138688284612bb0565b9150613873826131cf565b915081905092915050565b600061388982612dc5565b9150613894826136ff565b915061389f82612be1565b91506138ab8287612bb0565b91506138b6826136bf565b91506138c28286612b18565b6014820191506138d1826133c1565b91506138dc82613619565b91506138e88285612bb0565b91506138f382612eeb565b91506138fe8261324f565b915061390a8284612b18565b601482019150613919826137b1565b915081905095945050505050565b600061393282613573565b915061393e8284612bb0565b915081905092915050565b600060208201905061395e6000830184612b09565b92915050565b60006080820190506139796000830187612b09565b6139866020830186612b09565b61399360408301856137f1565b81810360608301526139a58184612b3e565b905095945050505050565b60006020820190506139c56000830184612b2f565b92915050565b600060208201905081810360008301526139e58184612b77565b905092915050565b60006020820190508181036000830152613a0681612d5f565b9050919050565b60006020820190508181036000830152613a2681612e45565b9050919050565b60006020820190508181036000830152613a4681612eab565b9050919050565b60006020820190508181036000830152613a6681612f2b565b9050919050565b60006020820190508181036000830152613a8681612f91565b9050919050565b60006020820190508181036000830152613aa681612fd1565b9050919050565b60006020820190508181036000830152613ac681613037565b9050919050565b60006020820190508181036000830152613ae68161309d565b9050919050565b60006020820190508181036000830152613b0681613103565b9050919050565b60006020820190508181036000830152613b2681613169565b9050919050565b60006020820190508181036000830152613b468161320f565b9050919050565b60006020820190508181036000830152613b66816132b5565b9050919050565b60006020820190508181036000830152613b868161331b565b9050919050565b60006020820190508181036000830152613ba68161335b565b9050919050565b60006020820190508181036000830152613bc681613401565b9050919050565b60006020820190508181036000830152613be681613441565b9050919050565b60006020820190508181036000830152613c06816134a7565b9050919050565b60006020820190508181036000830152613c268161350d565b9050919050565b60006020820190508181036000830152613c46816135b3565b9050919050565b60006020820190508181036000830152613c668161367f565b9050919050565b6000602082019050613c8260008301846137f1565b92915050565b6000604051905081810181811067ffffffffffffffff82111715613caf57613cae6140c8565b5b8060405250919050565b600067ffffffffffffffff821115613cd457613cd36140c8565b5b601f19601f8301169050602081019050919050565b600067ffffffffffffffff821115613d0457613d036140c8565b5b601f19601f8301169050602081019050919050565b600081519050919050565b600081519050919050565b600082825260208201905092915050565b600082825260208201905092915050565b600081905092915050565b6000613d6782613f12565b9150613d7283613f12565b9250827fffffffffffffffffffffffffffffffffffffffffffffffffffffffffffffffff03821115613da757613da661403b565b5b828201905092915050565b6000613dbd82613f1c565b9150613dc883613f1c565b92508260ff03821115613dde57613ddd61403b565b5b828201905092915050565b6000613df482613f12565b9150613dff83613f12565b925082613e0f57613e0e61406a565b5b828204905092915050565b6000613e2582613f12565b9150613e3083613f12565b9250817fffffffffffffffffffffffffffffffffffffffffffffffffffffffffffffffff0483118215151615613e6957613e6861403b565b5b828202905092915050565b6000613e7f82613f12565b9150613e8a83613f12565b925082821015613e9d57613e9c61403b565b5b828203905092915050565b6000613eb382613ef2565b9050919050565b60008115159050919050565b60007fffffffff0000000000000000000000000000000000000000000000000000000082169050919050565b600073ffffffffffffffffffffffffffffffffffffffff82169050919050565b6000819050919050565b600060ff82169050919050565b82818337600083830152505050565b60005b83811015613f56578082015181840152602081019050613f3b565b83811115613f65576000848401525b50505050565b60006002820490506001821680613f8357607f821691505b60208210811415613f9757613f96614099565b5b50919050565b6000613fa882613f12565b91507fffffffffffffffffffffffffffffffffffffffffffffffffffffffffffffffff821415613fdb57613fda61403b565b5b600182019050919050565b6000613ff182613ff8565b9050919050565b600061400382614108565b9050919050565b600061401582613f12565b915061402083613f12565b9250826140305761402f61406a565b5b828206905092915050565b7f4e487b7100000000000000000000000000000000000000000000000000000000600052601160045260246000fd5b7f4e487b7100000000000000000000000000000000000000000000000000000000600052601260045260246000fd5b7f4e487b7100000000000000000000000000000000000000000000000000000000600052602260045260246000fd5b7f4e487b7100000000000000000000000000000000000000000000000000000000600052604160045260246000fd5b6000601f19601f8301169050919050565b60008160601b9050919050565b61411e81613ea8565b811461412957600080fd5b50565b61413581613eba565b811461414057600080fd5b50565b61414c81613ec6565b811461415757600080fd5b50565b61416381613f12565b811461416e57600080fd5b5056fe4142434445464748494a4b4c4d4e4f505152535455565758595a6162636465666768696a6b6c6d6e6f707172737475767778797a303132333435363738392b2fa2646970667358221220752e85fe86b870a2f8639d9c3e21c9dcbf97f8622f202146ec5b3055af14ba3c64736f6c63430008000033",
  "devdoc": {
    "kind": "dev",
    "methods": {
      "approve(address,uint256)": {
        "details": "See {IERC721-approve}."
      },
      "balanceOf(address)": {
        "details": "See {IERC721-balanceOf}."
      },
      "getApproved(uint256)": {
        "details": "See {IERC721-getApproved}."
      },
      "isApprovedForAll(address,address)": {
        "details": "See {IERC721-isApprovedForAll}."
      },
      "name()": {
        "details": "See {IERC721Metadata-name}."
      },
      "owner()": {
        "details": "Returns the address of the current owner."
      },
      "ownerOf(uint256)": {
        "details": "See {IERC721-ownerOf}."
      },
      "renounceOwnership()": {
        "details": "Leaves the contract without owner. It will not be possible to call `onlyOwner` functions anymore. Can only be called by the current owner. NOTE: Renouncing ownership will leave the contract without an owner, thereby removing any functionality that is only available to the owner."
      },
      "safeTransferFrom(address,address,uint256)": {
        "details": "See {IERC721-safeTransferFrom}."
      },
      "safeTransferFrom(address,address,uint256,bytes)": {
        "details": "See {IERC721-safeTransferFrom}."
      },
      "setApprovalForAll(address,bool)": {
        "details": "See {IERC721-setApprovalForAll}."
      },
      "supportsInterface(bytes4)": {
        "details": "See {IERC165-supportsInterface}."
      },
      "symbol()": {
        "details": "See {IERC721Metadata-symbol}."
      },
      "tokenURI(uint256)": {
        "details": "See {IERC721Metadata-tokenURI}."
      },
      "transferFrom(address,address,uint256)": {
        "details": "See {IERC721-transferFrom}."
      },
      "transferOwnership(address)": {
        "details": "Transfers ownership of the contract to a new account (`newOwner`). Can only be called by the current owner."
      }
    },
    "version": 1
  },
  "userdoc": {
    "kind": "user",
    "methods": {},
    "version": 1
  },
  "storageLayout": {
    "storage": [
      {
        "astId": 169,
        "contract": "contracts/2NFTG.sol:NFTG",
        "label": "_name",
        "offset": 0,
        "slot": "0",
        "type": "t_string_storage"
      },
      {
        "astId": 171,
        "contract": "contracts/2NFTG.sol:NFTG",
        "label": "_symbol",
        "offset": 0,
        "slot": "1",
        "type": "t_string_storage"
      },
      {
        "astId": 175,
        "contract": "contracts/2NFTG.sol:NFTG",
        "label": "_owners",
        "offset": 0,
        "slot": "2",
        "type": "t_mapping(t_uint256,t_address)"
      },
      {
        "astId": 179,
        "contract": "contracts/2NFTG.sol:NFTG",
        "label": "_balances",
        "offset": 0,
        "slot": "3",
        "type": "t_mapping(t_address,t_uint256)"
      },
      {
        "astId": 183,
        "contract": "contracts/2NFTG.sol:NFTG",
        "label": "_tokenApprovals",
        "offset": 0,
        "slot": "4",
        "type": "t_mapping(t_uint256,t_address)"
      },
      {
        "astId": 189,
        "contract": "contracts/2NFTG.sol:NFTG",
        "label": "_operatorApprovals",
        "offset": 0,
        "slot": "5",
        "type": "t_mapping(t_address,t_mapping(t_address,t_bool))"
      },
      {
        "astId": 1106,
        "contract": "contracts/2NFTG.sol:NFTG",
        "label": "_tokenURIs",
        "offset": 0,
        "slot": "6",
        "type": "t_mapping(t_uint256,t_string_storage)"
      },
      {
        "astId": 114,
        "contract": "contracts/2NFTG.sol:NFTG",
        "label": "_status",
        "offset": 0,
        "slot": "7",
        "type": "t_uint256"
      },
      {
        "astId": 7,
        "contract": "contracts/2NFTG.sol:NFTG",
        "label": "_owner",
        "offset": 0,
        "slot": "8",
        "type": "t_address"
      },
      {
        "astId": 1947,
        "contract": "contracts/2NFTG.sol:NFTG",
        "label": "tokenCount",
        "offset": 0,
        "slot": "9",
        "type": "t_uint256"
      },
      {
        "astId": 1950,
        "contract": "contracts/2NFTG.sol:NFTG",
        "label": "tokenId",
        "offset": 0,
        "slot": "10",
        "type": "t_uint256"
      },
      {
        "astId": 1953,
        "contract": "contracts/2NFTG.sol:NFTG",
        "label": "maxTokens",
        "offset": 0,
        "slot": "11",
        "type": "t_uint256"
      },
      {
        "astId": 1956,
        "contract": "contracts/2NFTG.sol:NFTG",
        "label": "maxPlayers",
        "offset": 0,
        "slot": "12",
        "type": "t_uint256"
      },
      {
        "astId": 1960,
        "contract": "contracts/2NFTG.sol:NFTG",
        "label": "tokenIdMinter",
        "offset": 0,
        "slot": "13",
        "type": "t_mapping(t_uint256,t_address)"
      },
      {
        "astId": 1964,
        "contract": "contracts/2NFTG.sol:NFTG",
        "label": "tokenIdTransfers",
        "offset": 0,
        "slot": "14",
        "type": "t_mapping(t_uint256,t_uint256)"
      }
    ],
    "types": {
      "t_address": {
        "encoding": "inplace",
        "label": "address",
        "numberOfBytes": "20"
      },
      "t_bool": {
        "encoding": "inplace",
        "label": "bool",
        "numberOfBytes": "1"
      },
      "t_mapping(t_address,t_bool)": {
        "encoding": "mapping",
        "key": "t_address",
        "label": "mapping(address => bool)",
        "numberOfBytes": "32",
        "value": "t_bool"
      },
      "t_mapping(t_address,t_mapping(t_address,t_bool))": {
        "encoding": "mapping",
        "key": "t_address",
        "label": "mapping(address => mapping(address => bool))",
        "numberOfBytes": "32",
        "value": "t_mapping(t_address,t_bool)"
      },
      "t_mapping(t_address,t_uint256)": {
        "encoding": "mapping",
        "key": "t_address",
        "label": "mapping(address => uint256)",
        "numberOfBytes": "32",
        "value": "t_uint256"
      },
      "t_mapping(t_uint256,t_address)": {
        "encoding": "mapping",
        "key": "t_uint256",
        "label": "mapping(uint256 => address)",
        "numberOfBytes": "32",
        "value": "t_address"
      },
      "t_mapping(t_uint256,t_string_storage)": {
        "encoding": "mapping",
        "key": "t_uint256",
        "label": "mapping(uint256 => string)",
        "numberOfBytes": "32",
        "value": "t_string_storage"
      },
      "t_mapping(t_uint256,t_uint256)": {
        "encoding": "mapping",
        "key": "t_uint256",
        "label": "mapping(uint256 => uint256)",
        "numberOfBytes": "32",
        "value": "t_uint256"
      },
      "t_string_storage": {
        "encoding": "bytes",
        "label": "string",
        "numberOfBytes": "32"
      },
      "t_uint256": {
        "encoding": "inplace",
        "label": "uint256",
        "numberOfBytes": "32"
      }
    }
  }
}